{
  "contractName": "crowdSale1",
  "abi": [
    {
      "inputs": [],
      "stateMutability": "nonpayable",
      "type": "constructor"
    },
    {
      "anonymous": false,
      "inputs": [
        {
          "indexed": false,
          "internalType": "address",
          "name": "from",
          "type": "address"
        },
        {
          "indexed": false,
          "internalType": "address",
          "name": "to",
          "type": "address"
        },
        {
          "indexed": false,
          "internalType": "uint256",
          "name": "amount",
          "type": "uint256"
        }
      ],
      "name": "Transfer1",
      "type": "event"
    },
    {
      "stateMutability": "payable",
      "type": "receive",
      "payable": true
    },
    {
      "inputs": [],
      "name": "tokenForEth",
      "outputs": [],
      "stateMutability": "payable",
      "type": "function",
      "payable": true
    }
  ],
  "bytecode": "0x608060405234801561001057600080fd5b50600080546001600160a01b031916738a3f677b7f738811d9951a848002731085f469fe17905561021f806100466000396000f3fe6080604052600436106100225760003560e01c8063ffe775281461002e57600080fd5b3661002957005b600080fd5b610036610038565b005b34600061004682600a61017c565b6000546040516370a0823160e01b815230600482015291925082916001600160a01b03909116906370a0823190602401602060405180830381865afa158015610093573d6000803e3d6000fd5b505050506040513d601f19601f820116820180604052508101906100b791906101a7565b10156100c257600080fd5b60005460405163a9059cbb60e01b8152336004820152602481018390526001600160a01b039091169063a9059cbb906044016020604051808303816000875af1158015610113573d6000803e3d6000fd5b505050506040513d601f19601f8201168201806040525081019061013791906101c0565b50604080513081523360208201529081018290527f45d0465cda3936ccc7ee223b12be71e3f5da003b041626b6faf29ad2c62eb9ae9060600160405180910390a15050565b80820281158282048414176101a157634e487b7160e01b600052601160045260246000fd5b92915050565b6000602082840312156101b957600080fd5b5051919050565b6000602082840312156101d257600080fd5b815180151581146101e257600080fd5b939250505056fea264697066735822122007684f97801c35fd1e5631e7c3c275eeae745bb67ab971ddf73c38280c01e6ed64736f6c63430008110033",
  "immutableReferences": {},
  "source": "// SPDX-License-Identifier: MIT\r\n\r\npragma solidity 0.8.17;\r\nimport \"@openzeppelin/contracts/token/ERC20/IERC20.sol\";\r\n\r\ncontract crowdSale1 {\r\n\r\n    IERC20 token;\r\n    event Transfer1(address from, address to, uint256 amount);\r\n\r\n  \r\n/// @custom:oz-upgrades-unsafe-allow constructor\r\n    constructor(){\r\n    //  function initialize() public initializer {\r\n       token = IERC20(0x8A3F677B7f738811d9951A848002731085f469fe);\r\n     }\r\n      receive() payable external {}\r\n\r\n    function tokenForEth() payable external {\r\n      uint256 amount = msg.value;\r\n      uint256 calValue = amount * 10;\r\n      require(token.balanceOf(address(this)) >= calValue);\r\n      token.transfer(msg.sender, calValue);\r\n      emit Transfer1(address(this), msg.sender, calValue);\r\n    }\r\n}\r\n   ",
  "sourcePath": "D:\\solidity\\madhu\\contracts\\crowdSale1.sol",
  "compiler": {
    "name": "solc",
    "version": "0.8.17+commit.8df45f5f.Emscripten.clang"
  },
  "schemaVersion": "3.4.10",
  "updatedAt": "2022-11-11T09:01:02.639Z",
  "networkType": "ethereum",
  "devdoc": {
    "kind": "dev",
    "methods": {
      "constructor": {
        "custom:oz-upgrades-unsafe-allow": "constructor"
      }
    },
    "version": 1
  },
  "userdoc": {
    "kind": "user",
    "methods": {},
    "version": 1
  }
}