{
  "contractName": "ERC20",
  "abi": [
    {
      "inputs": [],
      "stateMutability": "nonpayable",
      "type": "constructor"
    },
    {
      "anonymous": false,
      "inputs": [
        {
          "indexed": true,
          "internalType": "address",
          "name": "owner",
          "type": "address"
        },
        {
          "indexed": true,
          "internalType": "address",
          "name": "spender",
          "type": "address"
        },
        {
          "indexed": false,
          "internalType": "uint256",
          "name": "value",
          "type": "uint256"
        }
      ],
      "name": "Approval",
      "type": "event"
    },
    {
      "anonymous": false,
      "inputs": [
        {
          "indexed": true,
          "internalType": "address",
          "name": "from",
          "type": "address"
        },
        {
          "indexed": true,
          "internalType": "address",
          "name": "to",
          "type": "address"
        },
        {
          "indexed": false,
          "internalType": "uint256",
          "name": "value",
          "type": "uint256"
        }
      ],
      "name": "Transfer",
      "type": "event"
    },
    {
      "inputs": [],
      "name": "currentTaxFee",
      "outputs": [
        {
          "internalType": "uint256",
          "name": "",
          "type": "uint256"
        }
      ],
      "stateMutability": "view",
      "type": "function",
      "constant": true
    },
    {
      "inputs": [],
      "name": "taxAmount",
      "outputs": [
        {
          "internalType": "uint256",
          "name": "",
          "type": "uint256"
        }
      ],
      "stateMutability": "view",
      "type": "function",
      "constant": true
    },
    {
      "inputs": [],
      "name": "taxPercentage",
      "outputs": [
        {
          "internalType": "uint256",
          "name": "",
          "type": "uint256"
        }
      ],
      "stateMutability": "view",
      "type": "function",
      "constant": true
    },
    {
      "inputs": [],
      "name": "uniswapV2Pair",
      "outputs": [
        {
          "internalType": "address",
          "name": "",
          "type": "address"
        }
      ],
      "stateMutability": "view",
      "type": "function",
      "constant": true
    },
    {
      "inputs": [],
      "name": "uniswapV2Router",
      "outputs": [
        {
          "internalType": "contract IUniswapV2Router02",
          "name": "",
          "type": "address"
        }
      ],
      "stateMutability": "view",
      "type": "function",
      "constant": true
    },
    {
      "stateMutability": "payable",
      "type": "receive",
      "payable": true
    },
    {
      "inputs": [],
      "name": "name",
      "outputs": [
        {
          "internalType": "string",
          "name": "",
          "type": "string"
        }
      ],
      "stateMutability": "view",
      "type": "function",
      "constant": true
    },
    {
      "inputs": [],
      "name": "symbol",
      "outputs": [
        {
          "internalType": "string",
          "name": "",
          "type": "string"
        }
      ],
      "stateMutability": "view",
      "type": "function",
      "constant": true
    },
    {
      "inputs": [],
      "name": "decimals",
      "outputs": [
        {
          "internalType": "uint8",
          "name": "",
          "type": "uint8"
        }
      ],
      "stateMutability": "view",
      "type": "function",
      "constant": true
    },
    {
      "inputs": [],
      "name": "totalSupply",
      "outputs": [
        {
          "internalType": "uint256",
          "name": "",
          "type": "uint256"
        }
      ],
      "stateMutability": "view",
      "type": "function",
      "constant": true
    },
    {
      "inputs": [
        {
          "internalType": "address",
          "name": "account",
          "type": "address"
        }
      ],
      "name": "balanceOf",
      "outputs": [
        {
          "internalType": "uint256",
          "name": "",
          "type": "uint256"
        }
      ],
      "stateMutability": "view",
      "type": "function",
      "constant": true
    },
    {
      "inputs": [
        {
          "internalType": "address",
          "name": "to",
          "type": "address"
        },
        {
          "internalType": "uint256",
          "name": "amount",
          "type": "uint256"
        }
      ],
      "name": "transfer",
      "outputs": [
        {
          "internalType": "bool",
          "name": "",
          "type": "bool"
        }
      ],
      "stateMutability": "nonpayable",
      "type": "function"
    },
    {
      "inputs": [
        {
          "internalType": "address",
          "name": "owner",
          "type": "address"
        },
        {
          "internalType": "address",
          "name": "spender",
          "type": "address"
        }
      ],
      "name": "allowance",
      "outputs": [
        {
          "internalType": "uint256",
          "name": "",
          "type": "uint256"
        }
      ],
      "stateMutability": "view",
      "type": "function",
      "constant": true
    },
    {
      "inputs": [
        {
          "internalType": "address",
          "name": "spender",
          "type": "address"
        },
        {
          "internalType": "uint256",
          "name": "amount",
          "type": "uint256"
        }
      ],
      "name": "approve",
      "outputs": [
        {
          "internalType": "bool",
          "name": "",
          "type": "bool"
        }
      ],
      "stateMutability": "nonpayable",
      "type": "function"
    },
    {
      "inputs": [
        {
          "internalType": "address",
          "name": "from",
          "type": "address"
        },
        {
          "internalType": "address",
          "name": "to",
          "type": "address"
        },
        {
          "internalType": "uint256",
          "name": "amount",
          "type": "uint256"
        }
      ],
      "name": "transferFrom",
      "outputs": [
        {
          "internalType": "bool",
          "name": "",
          "type": "bool"
        }
      ],
      "stateMutability": "nonpayable",
      "type": "function"
    },
    {
      "inputs": [
        {
          "internalType": "address",
          "name": "spender",
          "type": "address"
        },
        {
          "internalType": "uint256",
          "name": "addedValue",
          "type": "uint256"
        }
      ],
      "name": "increaseAllowance",
      "outputs": [
        {
          "internalType": "bool",
          "name": "",
          "type": "bool"
        }
      ],
      "stateMutability": "nonpayable",
      "type": "function"
    },
    {
      "inputs": [
        {
          "internalType": "address",
          "name": "spender",
          "type": "address"
        },
        {
          "internalType": "uint256",
          "name": "subtractedValue",
          "type": "uint256"
        }
      ],
      "name": "decreaseAllowance",
      "outputs": [
        {
          "internalType": "bool",
          "name": "",
          "type": "bool"
        }
      ],
      "stateMutability": "nonpayable",
      "type": "function"
    }
  ],
  "bytecode": "0x60806040526001600555600b805460ff60a01b191690553480156200002357600080fd5b50604080518082019091526003808252621b585960ea1b6020830152906200004c9082620002e6565b506040805180820190915260038152621b585960ea1b6020820152600490620000769082620002e6565b5069152d02c7e14af68000006002819055336000908152602081815260409182902092909255600b80546001600160a01b031916739ac64cc6e4415144c455bd8e4837fea55603e5c3908117909155815163c45a015560e01b815291519092839263c45a015592600480830193928290030181865afa158015620000fe573d6000803e3d6000fd5b505050506040513d601f19601f82011682018060405250810190620001249190620003b2565b6001600160a01b031663c9c6539630836001600160a01b031663ad5c46486040518163ffffffff1660e01b8152600401602060405180830381865afa15801562000172573d6000803e3d6000fd5b505050506040513d601f19601f82011682018060405250810190620001989190620003b2565b6040516001600160e01b031960e085901b1681526001600160a01b039283166004820152911660248201526044016020604051808303816000875af1158015620001e6573d6000803e3d6000fd5b505050506040513d601f19601f820116820180604052508101906200020c9190620003b2565b600a80546001600160a01b039283166001600160a01b03199182161790915560098054939092169216919091179055620003e4565b634e487b7160e01b600052604160045260246000fd5b600181811c908216806200026c57607f821691505b6020821081036200028d57634e487b7160e01b600052602260045260246000fd5b50919050565b601f821115620002e157600081815260208120601f850160051c81016020861015620002bc5750805b601f850160051c820191505b81811015620002dd57828155600101620002c8565b5050505b505050565b81516001600160401b0381111562000302576200030262000241565b6200031a8162000313845462000257565b8462000293565b602080601f831160018114620003525760008415620003395750858301515b600019600386901b1c1916600185901b178555620002dd565b600085815260208120601f198616915b82811015620003835788860151825594840194600190910190840162000362565b5085821015620003a25787850151600019600388901b60f8161c191681555b5050505050600190811b01905550565b600060208284031215620003c557600080fd5b81516001600160a01b0381168114620003dd57600080fd5b9392505050565b610aeb80620003f46000396000f3fe6080604052600436106100f75760003560e01c806370a082311161008a578063a9059cbb11610059578063a9059cbb146102b2578063ad5ea36f146102d2578063ae7b6d16146102e8578063dd62ed3e146102fe57600080fd5b806370a082311461023157806380df7ea71461026757806395d89b411461027d578063a457c2d71461029257600080fd5b806323b872dd116100c657806323b872dd146101b5578063313ce567146101d557806339509351146101f157806349bd5a5e1461021157600080fd5b806306fdde0314610103578063095ea7b31461012e5780631694505e1461015e57806318160ddd1461019657600080fd5b366100fe57005b600080fd5b34801561010f57600080fd5b5061011861031e565b60405161012591906108e1565b60405180910390f35b34801561013a57600080fd5b5061014e61014936600461094b565b6103b0565b6040519015158152602001610125565b34801561016a57600080fd5b5060095461017e906001600160a01b031681565b6040516001600160a01b039091168152602001610125565b3480156101a257600080fd5b506002545b604051908152602001610125565b3480156101c157600080fd5b5061014e6101d0366004610975565b6103ca565b3480156101e157600080fd5b5060405160128152602001610125565b3480156101fd57600080fd5b5061014e61020c36600461094b565b6103ee565b34801561021d57600080fd5b50600a5461017e906001600160a01b031681565b34801561023d57600080fd5b506101a761024c3660046109b1565b6001600160a01b031660009081526020819052604090205490565b34801561027357600080fd5b506101a760085481565b34801561028957600080fd5b50610118610410565b34801561029e57600080fd5b5061014e6102ad36600461094b565b61041f565b3480156102be57600080fd5b5061014e6102cd36600461094b565b61049f565b3480156102de57600080fd5b506101a760065481565b3480156102f457600080fd5b506101a760055481565b34801561030a57600080fd5b506101a76103193660046109d3565b6104ad565b60606003805461032d90610a06565b80601f016020809104026020016040519081016040528092919081815260200182805461035990610a06565b80156103a65780601f1061037b576101008083540402835291602001916103a6565b820191906000526020600020905b81548152906001019060200180831161038957829003601f168201915b5050505050905090565b6000336103be8185856104d8565b60019150505b92915050565b6000336103d88582856105fc565b6103e3858585610676565b506001949350505050565b6000336103be81858561040183836104ad565b61040b9190610a56565b6104d8565b60606004805461032d90610a06565b6000338161042d82866104ad565b9050838110156104925760405162461bcd60e51b815260206004820152602560248201527f45524332303a2064656372656173656420616c6c6f77616e63652062656c6f77604482015264207a65726f60d81b60648201526084015b60405180910390fd5b6103e382868684036104d8565b6000336103be818585610676565b6001600160a01b03918216600090815260016020908152604080832093909416825291909152205490565b6001600160a01b03831661053a5760405162461bcd60e51b8152602060048201526024808201527f45524332303a20617070726f76652066726f6d20746865207a65726f206164646044820152637265737360e01b6064820152608401610489565b6001600160a01b03821661059b5760405162461bcd60e51b815260206004820152602260248201527f45524332303a20617070726f766520746f20746865207a65726f206164647265604482015261737360f01b6064820152608401610489565b6001600160a01b0383811660008181526001602090815260408083209487168084529482529182902085905590518481527f8c5be1e5ebec7d5bd14f71427d1e84f3dd0314c0f7b2291e5b200ac8c7c3b925910160405180910390a3505050565b600061060884846104ad565b9050600019811461067057818110156106635760405162461bcd60e51b815260206004820152601d60248201527f45524332303a20696e73756666696369656e7420616c6c6f77616e63650000006044820152606401610489565b61067084848484036104d8565b50505050565b6001600160a01b0383166106da5760405162461bcd60e51b815260206004820152602560248201527f45524332303a207472616e736665722066726f6d20746865207a65726f206164604482015264647265737360d81b6064820152608401610489565b6001600160a01b03821661073c5760405162461bcd60e51b815260206004820152602360248201527f45524332303a207472616e7366657220746f20746865207a65726f206164647260448201526265737360e81b6064820152608401610489565b6001600160a01b038316600090815260208190526040902054818110156107b45760405162461bcd60e51b815260206004820152602660248201527f45524332303a207472616e7366657220616d6f756e7420657863656564732062604482015265616c616e636560d01b6064820152608401610489565b600a546001600160a01b03858116911614610876576107d2826108c1565b6107dc8282610a69565b6001600160a01b0385166000908152602081905260409020556008546108029083610a69565b6001600160a01b0384166000908152602081905260408120805490919061082a908490610a56565b90915550506008543060009081526020819052604081208054909190610851908490610a56565b90915550506008546006805460009061086b908490610a56565b909155506106709050565b6108808282610a69565b6001600160a01b0380861660009081526020819052604080822093909355908516815290812080548492906108b6908490610a56565b909155505050505050565b6064600554826108d19190610a7c565b6108db9190610a93565b60085550565b600060208083528351808285015260005b8181101561090e578581018301518582016040015282016108f2565b506000604082860101526040601f19601f8301168501019250505092915050565b80356001600160a01b038116811461094657600080fd5b919050565b6000806040838503121561095e57600080fd5b6109678361092f565b946020939093013593505050565b60008060006060848603121561098a57600080fd5b6109938461092f565b92506109a16020850161092f565b9150604084013590509250925092565b6000602082840312156109c357600080fd5b6109cc8261092f565b9392505050565b600080604083850312156109e657600080fd5b6109ef8361092f565b91506109fd6020840161092f565b90509250929050565b600181811c90821680610a1a57607f821691505b602082108103610a3a57634e487b7160e01b600052602260045260246000fd5b50919050565b634e487b7160e01b600052601160045260246000fd5b808201808211156103c4576103c4610a40565b818103818111156103c4576103c4610a40565b80820281158282048414176103c4576103c4610a40565b600082610ab057634e487b7160e01b600052601260045260246000fd5b50049056fea2646970667358221220729009a6d12ce471f55e2a684b64f2aceb319b0d336575d46e8cdf0816e489b364736f6c63430008110033",
  "immutableReferences": {},
  "source": "// SPDX-License-Identifier: MIT\r\n// OpenZeppelin Contracts (last updated v4.7.0) (token/ERC20/ERC20.sol)\r\n\r\npragma solidity 0.8.17;\r\n\r\nimport \"../contracts/IERC20.sol\";\r\nimport \"../contracts/IuniSwap.sol\";\r\n\r\n/**\r\n * @dev Implementation of the {IERC20} interface.\r\n *\r\n * This implementation is agnostic to the way tokens are created. This means\r\n * that a supply mechanism has to be added in a derived contract using {_mint}.\r\n * For a generic mechanism see {ERC20PresetMinterPauser}.\r\n *\r\n * TIP: For a detailed writeup see our guide\r\n * https://forum.openzeppelin.com/t/how-to-implement-erc20-supply-mechanisms/226[How\r\n * to implement supply mechanisms].\r\n *\r\n * We have followed general OpenZeppelin Contracts guidelines: functions revert\r\n * instead returning `false` on failure. This behavior is nonetheless\r\n * conventional and does not conflict with the expectations of ERC20\r\n * applications.\r\n *\r\n * Additionally, an {Approval} event is emitted on calls to {transferFrom}.\r\n * This allows applications to reconstruct the allowance for all accounts just\r\n * by listening to said events. Other implementations of the EIP may not emit\r\n * these events, as it isn't required by the specification.\r\n *\r\n * Finally, the non-standard {decreaseAllowance} and {increaseAllowance}\r\n * functions have been added to mitigate the well-known issues around setting\r\n * allowances. See {IERC20-approve}.\r\n\r\n \r\n\r\npragma solidity ^0.8.0;\r\n\r\n/**\r\n * @dev Provides information about the current execution context, including the\r\n * sender of the transaction and its data. While these are generally available\r\n * via msg.sender and msg.data, they should not be accessed in such a direct\r\n * manner, since when dealing with meta-transactions the account sending and\r\n * paying for execution may not be the actual sender (as far as an application\r\n * is concerned).\r\n *\r\n * This contract is only required for intermediate, library-like contracts.\r\n */\r\nabstract contract Context {\r\n    function _msgSender() internal view virtual returns (address) {\r\n        return msg.sender;\r\n    }\r\n\r\n    function _msgData() internal view virtual returns (bytes calldata) {\r\n        return msg.data;\r\n    }\r\n}\r\n\r\n/**\r\n * @dev Interface for the optional metadata functions from the ERC20 standard.\r\n *\r\n * _Available since v4.1._\r\n */\r\ninterface IERC20Metadata is IERC20 {\r\n    /**\r\n     * @dev Returns the name of the token.\r\n     */\r\n    function name() external view returns (string memory);\r\n\r\n    /**\r\n     * @dev Returns the symbol of the token.\r\n     */\r\n    function symbol() external view returns (string memory);\r\n\r\n    /**\r\n     * @dev Returns the decimals places of the token.\r\n     */\r\n    function decimals() external view returns (uint8);\r\n}\r\n\r\ncontract ERC20 is Context, IERC20, IERC20Metadata {\r\n    mapping(address => uint256) private _balances;\r\n\r\n    mapping(address => mapping(address => uint256)) private _allowances;\r\n\r\n    uint256 private _totalSupply;\r\n\r\n    string private _name;\r\n    string private _symbol;\r\n\r\n    uint256 public taxPercentage = 1;\r\n    uint256 public taxAmount;\r\n    uint256 private previousTaxPercentage;\r\n    uint256 public currentTaxFee;\r\n\r\n    IUniswapV2Router02 public uniswapV2Router;\r\n    address public uniswapV2Pair;\r\n\r\n    address PANCAKEV2ROUTER;\r\n\r\n    /**\r\n     * @dev Sets the values for {name} and {symbol}.\r\n     *\r\n     * The default value of {decimals} is 18. To select a different value for\r\n     * {decimals} you should overload it.\r\n     *\r\n     * All two of these values are immutable: they can only be set once during\r\n     * construction.\r\n     */\r\n    constructor() {\r\n        _name = \"mad\";\r\n        _symbol = \"mad\";\r\n        _totalSupply = 100000 * 10**18;\r\n        _balances[msg.sender] = _totalSupply;\r\n\r\n        // ownerOfTransation = 0x5705d286e8fc970ca5dFa5C480b708126b6FcB03;\r\n        // UNISWAPV2ROUTER = 0x9Ac64Cc6e4415144C455BD8E4837Fea55603e5c3;\r\n        PANCAKEV2ROUTER = 0x9Ac64Cc6e4415144C455BD8E4837Fea55603e5c3;\r\n\r\n        IUniswapV2Router02 _uniswapV2Router = IUniswapV2Router02(\r\n            PANCAKEV2ROUTER\r\n        );\r\n        // Create a uniswap pair for this new token\r\n        uniswapV2Pair = IUniswapV2Factory(_uniswapV2Router.factory())\r\n            .createPair(address(this), _uniswapV2Router.WETH());\r\n\r\n        // set the rest of the contract variables\r\n        uniswapV2Router = _uniswapV2Router;\r\n    }\r\n\r\n    /**\r\n     * @dev Returns the name of the token.\r\n     */\r\n    function name() public view virtual override returns (string memory) {\r\n        return _name;\r\n    }\r\n\r\n    /**\r\n     * @dev Returns the symbol of the token, usually a shorter version of the\r\n     * name.\r\n     */\r\n    function symbol() public view virtual override returns (string memory) {\r\n        return _symbol;\r\n    }\r\n\r\n    /**\r\n     * @dev Returns the number of decimals used to get its user representation.\r\n     * For example, if `decimals` equals `2`, a balance of `505` tokens should\r\n     * be displayed to a user as `5.05` (`505 / 10 ** 2`).\r\n     *\r\n     * Tokens usually opt for a value of 18, imitating the relationship between\r\n     * Ether and Wei. This is the value {ERC20} uses, unless this function is\r\n     * overridden;\r\n     *\r\n     * NOTE: This information is only used for _display_ purposes: it in\r\n     * no way affects any of the arithmetic of the contract, including\r\n     * {IERC20-balanceOf} and {IERC20-transfer}.\r\n     */\r\n    function decimals() public view virtual override returns (uint8) {\r\n        return 18;\r\n    }\r\n\r\n    /**\r\n     * @dev See {IERC20-totalSupply}.\r\n     */\r\n    function totalSupply() public view virtual override returns (uint256) {\r\n        return _totalSupply;\r\n    }\r\n\r\n    /**\r\n     * @dev See {IERC20-balanceOf}.\r\n     */\r\n    function balanceOf(address account)\r\n        public\r\n        view\r\n        virtual\r\n        override\r\n        returns (uint256)\r\n    {\r\n        return _balances[account];\r\n    }\r\n\r\n    //to recieve BNB from uniswapV2Router when swaping\r\n    receive() external payable {}\r\n\r\n    /**\r\n     * @dev See {IERC20-transfer}.\r\n     *\r\n     * Requirements:\r\n     *\r\n     * - `to` cannot be the zero address.\r\n     * - the caller must have a balance of at least `amount`.\r\n     */\r\n    function transfer(address to, uint256 amount)\r\n        public\r\n        virtual\r\n        override\r\n        returns (bool)\r\n    {\r\n        address owner = _msgSender();\r\n        _transfer(owner, to, amount);\r\n        return true;\r\n    }\r\n\r\n    /**\r\n     * @dev See {IERC20-allowance}.\r\n     */\r\n    function allowance(address owner, address spender)\r\n        public\r\n        view\r\n        virtual\r\n        override\r\n        returns (uint256)\r\n    {\r\n        return _allowances[owner][spender];\r\n    }\r\n\r\n    /**\r\n     * @dev See {IERC20-approve}.\r\n     *\r\n     * NOTE: If `amount` is the maximum `uint256`, the allowance is not updated on\r\n     * `transferFrom`. This is semantically equivalent to an infinite approval.\r\n     *\r\n     * Requirements:\r\n     *\r\n     * - `spender` cannot be the zero address.\r\n     */\r\n    function approve(address spender, uint256 amount)\r\n        public\r\n        virtual\r\n        override\r\n        returns (bool)\r\n    {\r\n        address owner = _msgSender();\r\n        _approve(owner, spender, amount);\r\n        return true;\r\n    }\r\n\r\n    /**\r\n     * @dev See {IERC20-transferFrom}.\r\n     *\r\n     * Emits an {Approval} event indicating the updated allowance. This is not\r\n     * required by the EIP. See the note at the beginning of {ERC20}.\r\n     *\r\n     * NOTE: Does not update the allowance if the current allowance\r\n     * is the maximum `uint256`.\r\n     *\r\n     * Requirements:\r\n     *\r\n     * - `from` and `to` cannot be the zero address.\r\n     * - `from` must have a balance of at least `amount`.\r\n     * - the caller must have allowance for ``from``'s tokens of at least\r\n     * `amount`.\r\n     */\r\n    function transferFrom(\r\n        address from,\r\n        address to,\r\n        uint256 amount\r\n    ) public virtual override returns (bool) {\r\n        address spender = _msgSender();\r\n        _spendAllowance(from, spender, amount);\r\n        _transfer(from, to, amount);\r\n        return true;\r\n    }\r\n\r\n    /**\r\n     * @dev Atomically increases the allowance granted to `spender` by the caller.\r\n     *\r\n     * This is an alternative to {approve} that can be used as a mitigation for\r\n     * problems described in {IERC20-approve}.\r\n     *\r\n     * Emits an {Approval} event indicating the updated allowance.\r\n     *\r\n     * Requirements:\r\n     *\r\n     * - `spender` cannot be the zero address.\r\n     */\r\n    function increaseAllowance(address spender, uint256 addedValue)\r\n        public\r\n        virtual\r\n        returns (bool)\r\n    {\r\n        address owner = _msgSender();\r\n        _approve(owner, spender, allowance(owner, spender) + addedValue);\r\n        return true;\r\n    }\r\n\r\n    /**\r\n     * @dev Atomically decreases the allowance granted to `spender` by the caller.\r\n     *\r\n     * This is an alternative to {approve} that can be used as a mitigation for\r\n     * problems described in {IERC20-approve}.\r\n     *\r\n     * Emits an {Approval} event indicating the updated allowance.\r\n     *\r\n     * Requirements:\r\n     *\r\n     * - `spender` cannot be the zero address.\r\n     * - `spender` must have allowance for the caller of at least\r\n     * `subtractedValue`.\r\n     */\r\n    function decreaseAllowance(address spender, uint256 subtractedValue)\r\n        public\r\n        virtual\r\n        returns (bool)\r\n    {\r\n        address owner = _msgSender();\r\n        uint256 currentAllowance = allowance(owner, spender);\r\n        require(\r\n            currentAllowance >= subtractedValue,\r\n            \"ERC20: decreased allowance below zero\"\r\n        );\r\n        unchecked {\r\n            _approve(owner, spender, currentAllowance - subtractedValue);\r\n        }\r\n\r\n        return true;\r\n    }\r\n\r\n    /**\r\n     * @dev Moves `amount` of tokens from `from` to `to`.\r\n     *\r\n     * This internal function is equivalent to {transfer}, and can be used to\r\n     * e.g. implement automatic token fees, slashing mechanisms, etc.\r\n     *\r\n     * Emits a {Transfer} event.\r\n     *\r\n     * Requirements:\r\n     *\r\n     * - `from` cannot be the zero address.\r\n     * - `to` cannot be the zero address.\r\n     * - `from` must have a balance of at least `amount`.\r\n     */\r\n    bool takeFee = false;\r\n\r\n    function _transfer(\r\n        address from,\r\n        address to,\r\n        uint256 amount\r\n    ) internal virtual {\r\n        require(from != address(0), \"ERC20: transfer from the zero address\");\r\n        require(to != address(0), \"ERC20: transfer to the zero address\");\r\n\r\n        _beforeTokenTransfer(from, to, amount);\r\n\r\n        uint256 fromBalance = _balances[from];\r\n        require(\r\n            fromBalance >= amount,\r\n            \"ERC20: transfer amount exceeds balance\"\r\n        );\r\n\r\n        //     taxCalculation(amount);\r\n        //     // Overflow not possible: the sum of all balances is capped by totalSupply, and the sum is preserved by\r\n        //     // decrementing then incrementing.\r\n        //     _balances[to] += amount - taxAmount;\r\n        // }\r\n        //  bool takeFee = false;\r\n\r\n        if (from != uniswapV2Pair) {\r\n            taxCalculation(amount);\r\n            // takeFee = true;\r\n            _balances[from] = fromBalance - amount;\r\n            _balances[to] += amount - currentTaxFee;\r\n            _balances[address(this)] += currentTaxFee;\r\n            taxAmount += currentTaxFee;\r\n        } else {\r\n           // removeAllFee();\r\n            _balances[from] = fromBalance - amount;\r\n            _balances[to] += amount;\r\n            // restoringTheTaxValue();\r\n        }\r\n        // Overflow not possible: the sum of all balances is capped by totalSupply, and the sum is preserved by\r\n        // decrementing then incrementing.\r\n\r\n        // restoringTheTaxValue();\r\n\r\n        //     if(!takeFee && from == uniswapV2Pair){\r\n        //  restoringTheTaxValue();\r\n        // }\r\n    }\r\n\r\n    // emit Transfer(from, to, amount);\r\n\r\n    // _afterTokenTransfer(from, to, amount);\r\n\r\n    /** @dev Creates `amount` tokens and assigns them to `account`, increasing\r\n     * the total supply.\r\n     *\r\n     * Emits a {Transfer} event with `from` set to the zero address.\r\n     *\r\n     * Requirements:\r\n     *\r\n     * - `account` cannot be the zero address.\r\n     */\r\n    function _mint(address account, uint256 amount) internal virtual {\r\n        require(account != address(0), \"ERC20: mint to the zero address\");\r\n\r\n        _beforeTokenTransfer(address(0), account, amount);\r\n\r\n        _totalSupply += amount;\r\n        unchecked {\r\n            // Overflow not possible: balance + amount is at most totalSupply + amount, which is checked above.\r\n            _balances[account] += amount;\r\n        }\r\n        emit Transfer(address(0), account, amount);\r\n\r\n        _afterTokenTransfer(address(0), account, amount);\r\n    }\r\n\r\n    /**\r\n     * @dev Destroys `amount` tokens from `account`, reducing the\r\n     * total supply.\r\n     *\r\n     * Emits a {Transfer} event with `to` set to the zero address.\r\n     *\r\n     * Requirements:\r\n     *\r\n     * - `account` cannot be the zero address.\r\n     * - `account` must have at least `amount` tokens.\r\n     */\r\n    function _burn(address account, uint256 amount) internal virtual {\r\n        require(account != address(0), \"ERC20: burn from the zero address\");\r\n\r\n        _beforeTokenTransfer(account, address(0), amount);\r\n\r\n        uint256 accountBalance = _balances[account];\r\n        require(accountBalance >= amount, \"ERC20: burn amount exceeds balance\");\r\n        unchecked {\r\n            _balances[account] = accountBalance - amount;\r\n            // Overflow not possible: amount <= accountBalance <= totalSupply.\r\n            _totalSupply -= amount;\r\n        }\r\n\r\n        emit Transfer(account, address(0), amount);\r\n\r\n        _afterTokenTransfer(account, address(0), amount);\r\n    }\r\n\r\n    /**\r\n     * @dev Sets `amount` as the allowance of `spender` over the `owner` s tokens.\r\n     *\r\n     * This internal function is equivalent to `approve`, and can be used to\r\n     * e.g. set automatic allowances for certain subsystems, etc.\r\n     *\r\n     * Emits an {Approval} event.\r\n     *\r\n     * Requirements:\r\n     *\r\n     * - `owner` cannot be the zero address.\r\n     * - `spender` cannot be the zero address.\r\n     */\r\n    function _approve(\r\n        address owner,\r\n        address spender,\r\n        uint256 amount\r\n    ) internal virtual {\r\n        require(owner != address(0), \"ERC20: approve from the zero address\");\r\n        require(spender != address(0), \"ERC20: approve to the zero address\");\r\n\r\n        _allowances[owner][spender] = amount;\r\n        emit Approval(owner, spender, amount);\r\n    }\r\n\r\n    /**\r\n     * @dev Updates `owner` s allowance for `spender` based on spent `amount`.\r\n     *\r\n     * Does not update the allowance amount in case of infinite allowance.\r\n     * Revert if not enough allowance is available.\r\n     *\r\n     * Might emit an {Approval} event.\r\n     */\r\n    function _spendAllowance(\r\n        address owner,\r\n        address spender,\r\n        uint256 amount\r\n    ) internal virtual {\r\n        uint256 currentAllowance = allowance(owner, spender);\r\n        if (currentAllowance != type(uint256).max) {\r\n            require(\r\n                currentAllowance >= amount,\r\n                \"ERC20: insufficient allowance\"\r\n            );\r\n            unchecked {\r\n                _approve(owner, spender, currentAllowance - amount);\r\n            }\r\n        }\r\n    }\r\n\r\n    /**\r\n     * @dev Hook that is called before any transfer of tokens. This includes\r\n     * minting and burning.\r\n     *\r\n     * Calling conditions:\r\n     *\r\n     * - when `from` and `to` are both non-zero, `amount` of ``from``'s tokens\r\n     * will be transferred to `to`.\r\n     * - when `from` is zero, `amount` tokens will be minted for `to`.\r\n     * - when `to` is zero, `amount` of ``from``'s tokens will be burned.\r\n     * - `from` and `to` are never both zero.\r\n     *\r\n     * To learn more about hooks, head to xref:ROOT:extending-contracts.adoc#using-hooks[Using Hooks].\r\n     */\r\n    function _beforeTokenTransfer(\r\n        address from,\r\n        address to,\r\n        uint256 amount\r\n    ) internal virtual {}\r\n\r\n    /**\r\n     * @dev Hook that is called after any transfer of tokens. This includes\r\n     * minting and burning.\r\n     *\r\n     * Calling conditions:\r\n     *\r\n     * - when `from` and `to` are both non-zero, `amount` of ``from``'s tokens\r\n     * has been transferred to `to`.\r\n     * - when `from` is zero, `amount` tokens have been minted for `to`.\r\n     * - when `to` is zero, `amount` of ``from``'s tokens have been burned.\r\n     * - `from` and `to` are never both zero.\r\n     *\r\n     * To learn more about hooks, head to xref:ROOT:extending-contracts.adoc#using-hooks[Using Hooks].\r\n     */\r\n    function _afterTokenTransfer(\r\n        address from,\r\n        address to,\r\n        uint256 amount\r\n    ) internal virtual {}\r\n\r\n    function taxCalculation(uint256 amount) internal {\r\n        currentTaxFee = (amount * taxPercentage) / 100;\r\n    }\r\n\r\n    function removeAllFee() internal {\r\n        currentTaxFee = 0;\r\n    }\r\n\r\n    // function restoringTheTaxValue() internal {\r\n    //     taxPercentage = previousTaxPercentage;\r\n    // }\r\n}\r\n",
  "sourcePath": "D:\\madhu\\contracts\\ERC20.sol",
  "compiler": {
    "name": "solc",
    "version": "0.8.17+commit.8df45f5f.Emscripten.clang"
  },
  "schemaVersion": "3.4.10",
  "updatedAt": "2022-11-04T08:49:32.783Z",
  "networkType": "ethereum",
  "devdoc": {
    "kind": "dev",
    "methods": {
      "allowance(address,address)": {
        "details": "See {IERC20-allowance}."
      },
      "approve(address,uint256)": {
        "details": "See {IERC20-approve}. NOTE: If `amount` is the maximum `uint256`, the allowance is not updated on `transferFrom`. This is semantically equivalent to an infinite approval. Requirements: - `spender` cannot be the zero address."
      },
      "balanceOf(address)": {
        "details": "See {IERC20-balanceOf}."
      },
      "constructor": {
        "details": "Sets the values for {name} and {symbol}. The default value of {decimals} is 18. To select a different value for {decimals} you should overload it. All two of these values are immutable: they can only be set once during construction."
      },
      "decimals()": {
        "details": "Returns the number of decimals used to get its user representation. For example, if `decimals` equals `2`, a balance of `505` tokens should be displayed to a user as `5.05` (`505 / 10 ** 2`). Tokens usually opt for a value of 18, imitating the relationship between Ether and Wei. This is the value {ERC20} uses, unless this function is overridden; NOTE: This information is only used for _display_ purposes: it in no way affects any of the arithmetic of the contract, including {IERC20-balanceOf} and {IERC20-transfer}."
      },
      "decreaseAllowance(address,uint256)": {
        "details": "Atomically decreases the allowance granted to `spender` by the caller. This is an alternative to {approve} that can be used as a mitigation for problems described in {IERC20-approve}. Emits an {Approval} event indicating the updated allowance. Requirements: - `spender` cannot be the zero address. - `spender` must have allowance for the caller of at least `subtractedValue`."
      },
      "increaseAllowance(address,uint256)": {
        "details": "Atomically increases the allowance granted to `spender` by the caller. This is an alternative to {approve} that can be used as a mitigation for problems described in {IERC20-approve}. Emits an {Approval} event indicating the updated allowance. Requirements: - `spender` cannot be the zero address."
      },
      "name()": {
        "details": "Returns the name of the token."
      },
      "symbol()": {
        "details": "Returns the symbol of the token, usually a shorter version of the name."
      },
      "totalSupply()": {
        "details": "See {IERC20-totalSupply}."
      },
      "transfer(address,uint256)": {
        "details": "See {IERC20-transfer}. Requirements: - `to` cannot be the zero address. - the caller must have a balance of at least `amount`."
      },
      "transferFrom(address,address,uint256)": {
        "details": "See {IERC20-transferFrom}. Emits an {Approval} event indicating the updated allowance. This is not required by the EIP. See the note at the beginning of {ERC20}. NOTE: Does not update the allowance if the current allowance is the maximum `uint256`. Requirements: - `from` and `to` cannot be the zero address. - `from` must have a balance of at least `amount`. - the caller must have allowance for ``from``'s tokens of at least `amount`."
      }
    },
    "stateVariables": {
      "takeFee": {
        "details": "Moves `amount` of tokens from `from` to `to`. This internal function is equivalent to {transfer}, and can be used to e.g. implement automatic token fees, slashing mechanisms, etc. Emits a {Transfer} event. Requirements: - `from` cannot be the zero address. - `to` cannot be the zero address. - `from` must have a balance of at least `amount`."
      }
    },
    "version": 1
  },
  "userdoc": {
    "kind": "user",
    "methods": {},
    "version": 1
  }
}