{
  "contractName": "ERC20",
  "abi": [
    {
      "inputs": [],
      "stateMutability": "nonpayable",
      "type": "constructor"
    },
    {
      "inputs": [],
      "name": "burnAmount",
      "outputs": [
        {
          "internalType": "uint256",
          "name": "",
          "type": "uint256"
        }
      ],
      "stateMutability": "view",
      "type": "function",
      "constant": true
    },
    {
      "inputs": [],
      "name": "burnPercentage",
      "outputs": [
        {
          "internalType": "uint256",
          "name": "",
          "type": "uint256"
        }
      ],
      "stateMutability": "view",
      "type": "function",
      "constant": true
    },
    {
      "inputs": [],
      "name": "charity_tx_percentage",
      "outputs": [
        {
          "internalType": "uint256",
          "name": "",
          "type": "uint256"
        }
      ],
      "stateMutability": "view",
      "type": "function",
      "constant": true
    },
    {
      "inputs": [],
      "name": "dev_tx_percentage",
      "outputs": [
        {
          "internalType": "uint256",
          "name": "",
          "type": "uint256"
        }
      ],
      "stateMutability": "view",
      "type": "function",
      "constant": true
    },
    {
      "inputs": [],
      "name": "marketing_tx_percentage",
      "outputs": [
        {
          "internalType": "uint256",
          "name": "",
          "type": "uint256"
        }
      ],
      "stateMutability": "view",
      "type": "function",
      "constant": true
    },
    {
      "inputs": [],
      "name": "totalCharityPercentage",
      "outputs": [
        {
          "internalType": "uint256",
          "name": "",
          "type": "uint256"
        }
      ],
      "stateMutability": "view",
      "type": "function",
      "constant": true
    },
    {
      "inputs": [],
      "name": "totalDevPercentage",
      "outputs": [
        {
          "internalType": "uint256",
          "name": "",
          "type": "uint256"
        }
      ],
      "stateMutability": "view",
      "type": "function",
      "constant": true
    },
    {
      "inputs": [],
      "name": "totalMarketingPercentage",
      "outputs": [
        {
          "internalType": "uint256",
          "name": "",
          "type": "uint256"
        }
      ],
      "stateMutability": "view",
      "type": "function",
      "constant": true
    },
    {
      "inputs": [],
      "name": "totalTaxPercentage",
      "outputs": [
        {
          "internalType": "uint256",
          "name": "",
          "type": "uint256"
        }
      ],
      "stateMutability": "view",
      "type": "function",
      "constant": true
    },
    {
      "inputs": [],
      "name": "totalTaxValue",
      "outputs": [
        {
          "internalType": "uint256",
          "name": "",
          "type": "uint256"
        }
      ],
      "stateMutability": "view",
      "type": "function",
      "constant": true
    },
    {
      "inputs": [],
      "name": "totalTransferTaxAmount",
      "outputs": [
        {
          "internalType": "uint256",
          "name": "",
          "type": "uint256"
        }
      ],
      "stateMutability": "view",
      "type": "function",
      "constant": true
    },
    {
      "inputs": [],
      "name": "transferTaxPercentage",
      "outputs": [
        {
          "internalType": "uint256",
          "name": "",
          "type": "uint256"
        }
      ],
      "stateMutability": "view",
      "type": "function",
      "constant": true
    },
    {
      "inputs": [],
      "name": "name",
      "outputs": [
        {
          "internalType": "string",
          "name": "",
          "type": "string"
        }
      ],
      "stateMutability": "view",
      "type": "function",
      "constant": true
    },
    {
      "inputs": [],
      "name": "symbol",
      "outputs": [
        {
          "internalType": "string",
          "name": "",
          "type": "string"
        }
      ],
      "stateMutability": "view",
      "type": "function",
      "constant": true
    },
    {
      "inputs": [],
      "name": "decimals",
      "outputs": [
        {
          "internalType": "uint256",
          "name": "",
          "type": "uint256"
        }
      ],
      "stateMutability": "view",
      "type": "function",
      "constant": true
    },
    {
      "inputs": [],
      "name": "totalSupply",
      "outputs": [
        {
          "internalType": "uint256",
          "name": "",
          "type": "uint256"
        }
      ],
      "stateMutability": "view",
      "type": "function",
      "constant": true
    },
    {
      "inputs": [],
      "name": "transferTaxAmount",
      "outputs": [
        {
          "internalType": "uint256",
          "name": "",
          "type": "uint256"
        }
      ],
      "stateMutability": "view",
      "type": "function",
      "constant": true
    },
    {
      "inputs": [
        {
          "internalType": "address",
          "name": "account",
          "type": "address"
        }
      ],
      "name": "balanceOf",
      "outputs": [
        {
          "internalType": "uint256",
          "name": "",
          "type": "uint256"
        }
      ],
      "stateMutability": "view",
      "type": "function",
      "constant": true
    },
    {
      "inputs": [
        {
          "internalType": "address",
          "name": "recipient",
          "type": "address"
        },
        {
          "internalType": "uint256",
          "name": "amount",
          "type": "uint256"
        }
      ],
      "name": "transfer",
      "outputs": [
        {
          "internalType": "bool",
          "name": "",
          "type": "bool"
        }
      ],
      "stateMutability": "nonpayable",
      "type": "function"
    },
    {
      "inputs": [
        {
          "internalType": "address",
          "name": "owner",
          "type": "address"
        },
        {
          "internalType": "address",
          "name": "spender",
          "type": "address"
        }
      ],
      "name": "allowance",
      "outputs": [
        {
          "internalType": "uint256",
          "name": "",
          "type": "uint256"
        }
      ],
      "stateMutability": "view",
      "type": "function",
      "constant": true
    },
    {
      "inputs": [
        {
          "internalType": "address",
          "name": "spender",
          "type": "address"
        },
        {
          "internalType": "uint256",
          "name": "amount",
          "type": "uint256"
        }
      ],
      "name": "approve",
      "outputs": [
        {
          "internalType": "bool",
          "name": "",
          "type": "bool"
        }
      ],
      "stateMutability": "nonpayable",
      "type": "function"
    },
    {
      "inputs": [
        {
          "internalType": "address",
          "name": "sender",
          "type": "address"
        },
        {
          "internalType": "address",
          "name": "recipient",
          "type": "address"
        },
        {
          "internalType": "uint256",
          "name": "amount",
          "type": "uint256"
        }
      ],
      "name": "transferFrom",
      "outputs": [
        {
          "internalType": "bool",
          "name": "",
          "type": "bool"
        }
      ],
      "stateMutability": "nonpayable",
      "type": "function"
    },
    {
      "inputs": [
        {
          "internalType": "address",
          "name": "spender",
          "type": "address"
        },
        {
          "internalType": "uint256",
          "name": "addedValue",
          "type": "uint256"
        }
      ],
      "name": "increaseAllowance",
      "outputs": [
        {
          "internalType": "bool",
          "name": "",
          "type": "bool"
        }
      ],
      "stateMutability": "nonpayable",
      "type": "function"
    },
    {
      "inputs": [
        {
          "internalType": "address",
          "name": "spender",
          "type": "address"
        },
        {
          "internalType": "uint256",
          "name": "subtractedValue",
          "type": "uint256"
        }
      ],
      "name": "spendAllowance",
      "outputs": [
        {
          "internalType": "bool",
          "name": "",
          "type": "bool"
        }
      ],
      "stateMutability": "nonpayable",
      "type": "function"
    },
    {
      "inputs": [
        {
          "internalType": "uint256",
          "name": "marketingTaxPercentage",
          "type": "uint256"
        },
        {
          "internalType": "uint256",
          "name": "devTaxPercentage",
          "type": "uint256"
        },
        {
          "internalType": "uint256",
          "name": "charityTaxPercentage",
          "type": "uint256"
        }
      ],
      "name": "updateTxPercentage",
      "outputs": [],
      "stateMutability": "nonpayable",
      "type": "function"
    },
    {
      "inputs": [
        {
          "internalType": "address",
          "name": "marketingAddress",
          "type": "address"
        },
        {
          "internalType": "address",
          "name": "devAddress",
          "type": "address"
        },
        {
          "internalType": "address",
          "name": "charityAddress",
          "type": "address"
        }
      ],
      "name": "updateTaxHolderAddress",
      "outputs": [],
      "stateMutability": "nonpayable",
      "type": "function"
    },
    {
      "inputs": [
        {
          "internalType": "uint256",
          "name": "_burnPercentage",
          "type": "uint256"
        }
      ],
      "name": "updateBurnPercentage",
      "outputs": [],
      "stateMutability": "nonpayable",
      "type": "function"
    }
  ],
  "bytecode": "0x6080604052601260028190556200001890600a62000226565b62000028906377359400620002f1565b60039081556001600781905560026008819055600992909255600f55601255601480546001600160a01b031990811673dd870fa1b7c4700f2bd7f44238821c26f73921481790915560158054821673583031d1113ad414f02576bd6afabfb302140225179055601680549091167314723a09acff6d2a60dcdf7aa4aff308fddc160c179055348015620000ba57600080fd5b5060408051808201909152600c8082526b537061726b20546f6b656e7360a01b6020909201918252620000f09160009162000137565b506040805180820190915260038082526253504b60e81b60209092019182526200011d9160019162000137565b506003543360009081526004602052604090205562000366565b828054620001459062000313565b90600052602060002090601f016020900481019282620001695760008555620001b4565b82601f106200018457805160ff1916838001178555620001b4565b82800160010185558215620001b4579182015b82811115620001b457825182559160200191906001019062000197565b50620001c2929150620001c6565b5090565b5b80821115620001c25760008155600101620001c7565b600181815b808511156200021e57816000190482111562000202576200020262000350565b808516156200021057918102915b93841c9390800290620001e2565b509250929050565b60006200023483836200023b565b9392505050565b6000826200024c57506001620002eb565b816200025b57506000620002eb565b81600181146200027457600281146200027f576200029f565b6001915050620002eb565b60ff84111562000293576200029362000350565b50506001821b620002eb565b5060208310610133831016604e8410600b8410161715620002c4575081810a620002eb565b620002d08383620001dd565b8060001904821115620002e757620002e762000350565b0290505b92915050565b60008160001904831182151516156200030e576200030e62000350565b500290565b600181811c908216806200032857607f821691505b602082108114156200034a57634e487b7160e01b600052602260045260246000fd5b50919050565b634e487b7160e01b600052601160045260246000fd5b610da380620003766000396000f3fe608060405234801561001057600080fd5b50600436106101a95760003560e01c806395d89b41116100f9578063d039529811610097578063ea14a50911610071578063ea14a5091461034a578063f01f20df1461035d578063f2b783ff14610366578063fff5a9fb1461038257600080fd5b8063d03952981461031b578063d74fc42814610324578063dd62ed3e1461033757600080fd5b8063ba15984c116100d3578063ba15984c146102b1578063be2910eb146102ba578063c03fc51714610309578063c6be09ab1461031257600080fd5b806395d89b411461028d578063a9059cbb14610295578063ae1bb4d7146102a857600080fd5b806339509351116101665780634f6fae86116101405780634f6fae861461024957806369f28a8c1461025257806370a082311461025b57806395c7b9841461028457600080fd5b80633950935114610225578063486a7e6b146102385780634e8935981461024157600080fd5b806306fdde03146101ae578063095ea7b3146101cc57806318160ddd146101ef57806323b872dd14610201578063313ce5671461021457806332e7d2f81461021c575b600080fd5b6101b661038b565b6040516101c39190610c16565b60405180910390f35b6101df6101da366004610ba7565b61041d565b60405190151581526020016101c3565b6003545b6040519081526020016101c3565b6101df61020f366004610b6b565b610489565b6002546101f3565b6101f3600b5481565b6101df610233366004610ba7565b6104e2565b6101f3600e5481565b6013546101f3565b6101f360135481565b6101f360095481565b6101f3610269366004610ad3565b6001600160a01b031660009081526004602052604090205490565b6101f3600d5481565b6101b661051e565b6101df6102a3366004610ba7565b61052d565b6101f3600a5481565b6101f360125481565b6103076102c8366004610b28565b601480546001600160a01b039485166001600160a01b031991821617909155601580549385169382169390931790925560168054919093169116179055565b005b6101f360085481565b6101f360075481565b6101f3600c5481565b6101df610332366004610ba7565b61053a565b6101f3610345366004610af5565b6105c0565b610307610358366004610bd1565b600f55565b6101f3600f5481565b610307610374366004610bea565b600792909255600855600955565b6101f360105481565b60606000805461039a90610d1c565b80601f01602080910402602001604051908101604052809291908181526020018280546103c690610d1c565b80156104135780601f106103e857610100808354040283529160200191610413565b820191906000526020600020905b8154815290600101906020018083116103f657829003601f168201915b5050505050905090565b336000908152600460205260408120548211156104755760405162461bcd60e51b8152602060048201526011602482015270125b9cdd59999a58da595b9d08199d5b99607a1b60448201526064015b60405180910390fd5b6104803384846105eb565b50600192915050565b60006104968484846105eb565b6104a18484846106a8565b6001600160a01b038316600090815260046020526040812080548492906104c9908490610cac565b909155506104d8905082610722565b5060019392505050565b3360008181526005602090815260408083206001600160a01b03871684529091528120549091610480918590610519908690610cac565b6105eb565b60606001805461039a90610d1c565b600061048033848461080c565b6000338161054882866105c0565b9050838110156105a85760405162461bcd60e51b815260206004820152602560248201527f45524332303a2064656372656173656420616c6c6f77616e63652062656c6f77604482015264207a65726f60d81b606482015260840161046c565b6105b582868684036105eb565b506001949350505050565b6001600160a01b03918216600090815260056020908152604080832093909416825291909152205490565b6001600160a01b0382166106115760405162461bcd60e51b815260040161046c90610c6b565b6001600160a01b0383166106675760405162461bcd60e51b815260206004820152601f60248201527f5370656e646572206163636f756e74206973205a65726f206163636f756e7400604482015260640161046c565b6001600160a01b0380841660009081526005602090815260408083209386168352929052908120805483929061069e908490610cac565b9091555050505050565b60006106b484846105c0565b9050600019811461071c578181101561070f5760405162461bcd60e51b815260206004820152601d60248201527f45524332303a20696e73756666696369656e7420616c6c6f77616e6365000000604482015260640161046c565b61071c84848484036105eb565b50505050565b6000610730600754836109ce565b905080600b60008282546107449190610cac565b925050819055506000610759600854846109ce565b905080600c600082825461076d9190610cac565b925050819055506000610782600954856109ce565b905080600d60008282546107969190610cac565b909155508190506107a78385610cac565b6107b19190610cac565b601055600d54600c54600b546107c79190610cac565b6107d19190610cac565b600a556107dd846109ef565b68056bc75e2d63100000600a541061071c576107f7610a1a565b6000600b819055600c819055600d5550505050565b6001600160a01b0382166108325760405162461bcd60e51b815260040161046c90610c6b565b6001600160a01b0383166108885760405162461bcd60e51b815260206004820152601f60248201527f5370656e646572206163636f756e74206973205a65726f206163636f756e7400604482015260640161046c565b6001600160a01b0383166000908152600460205260409020548111156108e45760405162461bcd60e51b8152602060048201526011602482015270125b9cdd59999a58da595b9d08199d5b99607a1b604482015260640161046c565b6001600160a01b0383166000908152600460205260408120805483929061090c908490610d05565b9091555050600f546064906109219083610ce6565b61092b9190610cc4565b600e81905560038054600090610942908490610d05565b9091555050600e54600080805260046020527f17ef568e3e12ab5b9c7254a8d58478811de00f9e6eb34345acd53bf8fd09d3ec8054909190610985908490610cac565b9091555050600e546109a09061099b9083610d05565b610722565b6010546109ad9082610d05565b6001600160a01b039092166000908152600460205260409020919091555050565b60008060646109dd8585610ce6565b6109e79190610cc4565b949350505050565b60006109fd601254836109ce565b90508060136000828254610a119190610cac565b90915550505050565b600b546014546001600160a01b031660009081526004602052604081208054909190610a47908490610cac565b9091555050600c546015546001600160a01b031660009081526004602052604081208054909190610a79908490610cac565b9091555050600d546016546001600160a01b031660009081526004602052604081208054909190610aab908490610cac565b90915550506000600a55565b80356001600160a01b0381168114610ace57600080fd5b919050565b600060208284031215610ae557600080fd5b610aee82610ab7565b9392505050565b60008060408385031215610b0857600080fd5b610b1183610ab7565b9150610b1f60208401610ab7565b90509250929050565b600080600060608486031215610b3d57600080fd5b610b4684610ab7565b9250610b5460208501610ab7565b9150610b6260408501610ab7565b90509250925092565b600080600060608486031215610b8057600080fd5b610b8984610ab7565b9250610b9760208501610ab7565b9150604084013590509250925092565b60008060408385031215610bba57600080fd5b610bc383610ab7565b946020939093013593505050565b600060208284031215610be357600080fd5b5035919050565b600080600060608486031215610bff57600080fd5b505081359360208301359350604090920135919050565b600060208083528351808285015260005b81811015610c4357858101830151858201604001528201610c27565b81811115610c55576000604083870101525b50601f01601f1916929092016040019392505050565b60208082526021908201527f526563697069656e742061646472657373206973207a65726f206163636f756e6040820152601d60fa1b606082015260800190565b60008219821115610cbf57610cbf610d57565b500190565b600082610ce157634e487b7160e01b600052601260045260246000fd5b500490565b6000816000190483118215151615610d0057610d00610d57565b500290565b600082821015610d1757610d17610d57565b500390565b600181811c90821680610d3057607f821691505b60208210811415610d5157634e487b7160e01b600052602260045260246000fd5b50919050565b634e487b7160e01b600052601160045260246000fdfea264697066735822122024ed0794b4a8ed6b05683a147e9cd70aae643c10330bf1bf08ed9bb4ea64124f64736f6c63430008070033",
  "immutableReferences": {},
  "source": "// SPDX-License-Identifier: MIT\r\n// OpenZeppelin Contracts (last updated v4.7.0) (token/ERC20/ERC20.sol)\r\n\r\npragma solidity 0.8.7;\r\n\r\nimport \"../contracts/IERC20.sol\";\r\n\r\ncontract ERC20 is IERC20{\r\n    string _name;\r\n    string _symbol;\r\n    uint256 _decimals = 18;\r\n    uint256 total_supply = 2000000000 * 10 ** _decimals;\r\n    mapping(address => uint256) balance_of;\r\n    mapping(address => mapping(address=> uint256)) _allowance;\r\n    address Owner;\r\n\r\n    uint256 public marketing_tx_percentage = 1;\r\n    uint256 public dev_tx_percentage= 2;\r\n    uint256 public charity_tx_percentage = 3;\r\n    uint256 public totalTaxValue;\r\n    uint256 public totalMarketingPercentage;\r\n    uint256 public totalDevPercentage;\r\n    uint256 public totalCharityPercentage;\r\n    uint256 public burnAmount;\r\n    uint256 public burnPercentage = 1;\r\n    uint256 public totalTaxPercentage;\r\n     address ownerOfTransation;\r\n     uint256 public transferTaxPercentage = 2;\r\n     uint256 public totalTransferTaxAmount;\r\n\r\n\r\n     address marketing_address = 0xdD870fA1b7C4700F2BD7f44238821C26f7392148;\r\n     address dev_address = 0x583031D1113aD414F02576BD6afaBfb302140225;\r\n     address charity_address = 0x14723A09ACff6D2A60DcdF7aA4AFf308FDDC160C;\r\n     address addressOfTransferTax;\r\n\r\n// to set the values of name, symbol and total supply\r\n\r\n    constructor() {\r\n        _name = \"Spark Tokens\";\r\n        _symbol = \"SPK\"; \r\n        balance_of[msg.sender] = total_supply;\r\n        // ownerOfTransation = 0x5705d286e8fc970ca5dFa5C480b708126b6FcB03;\r\n    }\r\n\r\n// to view the name of a contract\r\n    function name() external view returns(string memory){\r\n        return _name;\r\n    }\r\n// To view the symbol of a contract\r\n    function symbol() external view returns(string memory){\r\n        return _symbol;\r\n    }\r\n\r\n// to view the decimal of a contract\r\n    function decimals() external view returns(uint256){\r\n        return _decimals;\r\n    }\r\n// to view the total supply of a contract\r\n    function totalSupply() external override view returns(uint256){\r\n        return total_supply;\r\n    }\r\n\r\n        function transferTaxAmount()  public override view returns(uint256){\r\n            return totalTransferTaxAmount;\r\n        }\r\n\r\n\r\n/* \r\n     * @dev displace the balance of an given account\r\n     * @param account\r\n     */\r\n\r\n    function balanceOf(address account) public override view returns(uint256){\r\n        return balance_of[account];\r\n    }\r\n\r\n /* \r\n     * @dev to transfer the token to the recipient from account holder to the recipient\r\n     * @param recipient and amount\r\n     */\r\n\r\n    function transfer(address recipient, uint256 amount) external override returns(bool){\r\n       _transfer(msg.sender, recipient, amount);\r\n       return true;\r\n    }\r\n\r\n    /* \r\n     * @dev get the allowance\r\n     * @param owner and spender\r\n     */\r\n\r\n    function allowance(address owner, address spender) public override view returns(uint256){\r\n        return _allowance[owner][spender];\r\n    } \r\n\r\n    /* \r\n     * @dev approve the allowance to the spender form the account holder\r\n     * @param spender and amount\r\n     */ \r\n\r\n    function approve(address spender, uint256 amount) external override returns(bool){\r\n        require(balance_of[msg.sender] >= amount,\"Insufficient fund\");\r\n       _approve(msg.sender, spender, amount);\r\n        return true;\r\n    }\r\n\r\n    /* \r\n     * @dev transfer allowance to the recipient\r\n     * @param sender, recipient and amount\r\n     */\r\n\r\n    function transferFrom(address sender, address recipient, uint256 amount) external override returns(bool){\r\n        _approve(sender, recipient, amount);\r\n        _spendAllowance(sender, recipient, amount);\r\n        balance_of[recipient] += amount;\r\n        taxReduction(amount);  \r\n        return true;\r\n    }\r\n    modifier onlyOwner(){\r\n        require(msg.sender == Owner, \"Only owner can transfer\");\r\n        _;\r\n     }\r\n\r\n    /* \r\n     * @dev check the spender token is greater than the given amount\r\n     * if the condition is passed, the amount will reduced from the account holder and sent to recipient\r\n     * @param spender, recipient and amount\r\n     */\r\n\r\n    function _transfer(address spender, address recipient, uint256 amount) internal {\r\n        require(recipient != address(0), \"Recipient address is zero account\");\r\n        require(spender != address(0), \"Spender account is Zero account\");\r\n        require(balance_of[spender] >= amount,\"Insufficient fund\");\r\n        balance_of[spender] -= amount;\r\n        burnAmount = amount * burnPercentage / 100;\r\n        total_supply -= burnAmount;\r\n        balance_of[address(0)] += burnAmount;\r\n        taxReduction(amount-burnAmount);\r\n        balance_of[recipient] = amount - totalTaxPercentage;\r\n    }\r\n\r\n    /* \r\n     * @dev calculate the tax amount, if the tax amount is greater than 100 * 10 ** 18 \r\n     * taxCalculation function will execute\r\n     * @param amount\r\n     */\r\n\r\n    function taxReduction(uint256 amount) internal {\r\n       uint256 marketingPercentage = percentageCalculate(marketing_tx_percentage, amount);\r\n       totalMarketingPercentage += marketingPercentage;\r\n       uint256 devPercentage = percentageCalculate(dev_tx_percentage, amount);\r\n       totalDevPercentage += devPercentage;\r\n       uint256 charityPercentage = percentageCalculate(charity_tx_percentage, amount);\r\n       totalCharityPercentage += charityPercentage;\r\n       totalTaxPercentage = (marketingPercentage + devPercentage + charityPercentage);\r\n        totalTaxValue = (totalMarketingPercentage + totalDevPercentage + totalCharityPercentage);\r\n        transferTaxCalculation(amount);\r\n        if(totalTaxValue >= 100 * 10 ** 18){\r\n        taxCalculation();\r\n        totalMarketingPercentage = 0;\r\n        totalDevPercentage = 0;\r\n        totalCharityPercentage = 0;\r\n        }\r\n    }\r\n\r\n  \r\n    /* *\r\n     * @dev calculate the percentage value\r\n     * @param percent and amount\r\n     */\r\n\r\n    function percentageCalculate(uint256 percent, uint256 amount) internal pure returns(uint256){\r\n        uint256 percentageValue = amount * percent / 100;\r\n        return percentageValue;\r\n    }\r\n\r\n    /* *\r\n     * @dev add the amount to the allowance between spender and recipient\r\n     * @param spender, recipient and amount\r\n     */\r\n\r\n    function _approve(address spender, address recipient, uint256 amount) internal {\r\n        require(recipient != address(0), \"Recipient address is zero account\");\r\n        require(spender != address(0), \"Spender account is Zero account\");\r\n        _allowance[spender][recipient] += amount;\r\n    }\r\n\r\n /* *\r\n     * @dev reduce the amount from the allowance between spender and recipient\r\n     * @param spender, recipient and amount\r\n     */\r\n\r\n     function _spendAllowance(\r\n        address owner,\r\n        address spender,\r\n        uint256 amount\r\n    ) internal virtual {\r\n        uint256 currentAllowance = allowance(owner, spender);\r\n        if (currentAllowance != type(uint256).max) {\r\n            require(currentAllowance >= amount, \"ERC20: insufficient allowance\");\r\n            unchecked {\r\n                _approve(owner, spender, currentAllowance - amount);\r\n            }\r\n        }\r\n    }\r\n\r\n/* *\r\n     * @dev increase the allowance between owner and spender\r\n     * @param spender and addValue\r\n     */\r\n\r\n    function increaseAllowance(address spender, uint256 addedValue) external returns(bool){\r\n        _approve(msg.sender, spender, _allowance[msg.sender][spender] + addedValue);\r\n        return true;\r\n    }\r\n\r\n    /* *\r\n     * @dev decrease the allowance between owner and spender\r\n     * @param spender and addValue\r\n     */\r\n\r\n    function spendAllowance(address spender, uint256 subtractedValue) external returns(bool){\r\n       address owner = msg.sender;\r\n        uint256 currentAllowance = allowance(owner, spender);\r\n        require(currentAllowance >= subtractedValue, \"ERC20: decreased allowance below zero\");\r\n        unchecked {\r\n            _approve(owner, spender, currentAllowance - subtractedValue);\r\n        }\r\n\r\n        return true;\r\n    }\r\n    \r\n\r\n   /* *\r\n     * @dev to increase the token of a contract\r\n     * @param account, amount\r\n     */  \r\n\r\n    function _mint(address account, uint256 amount) internal {\r\n        balance_of[account] += amount;\r\n        total_supply += amount;\r\n    }\r\n\r\n   /* *\r\n     * @dev to decrease the token of a user\r\n     * @param account, amount\r\n     */  \r\n\r\n    function _burn(address account, uint256 amount) internal view{\r\n        require(account != address(0), \"This is an Zero Account\");\r\n        require(balanceOf(account) >= amount, \"Insufficient fund\");\r\n        uint256 reduceBalanceOfUser = balanceOf(account);\r\n        reduceBalanceOfUser -= amount;\r\n        \r\n    }\r\n\r\n    /* *\r\n     * @dev to update the values of the tax percentage\r\n     * @param marketingTaxPercentage, devTaxPercentage and charityTaxPercentage\r\n     */ \r\n\r\n    function updateTxPercentage(uint256 marketingTaxPercentage, uint256 devTaxPercentage, uint256 charityTaxPercentage)external{\r\n        marketing_tx_percentage = marketingTaxPercentage;\r\n        dev_tx_percentage = devTaxPercentage;\r\n        charity_tx_percentage = charityTaxPercentage;\r\n    }\r\n\r\n//  /* *\r\n//      * @dev to update the wallet of the tax holder\r\n//      * @param marketingAddress, devAddress and charityAddress\r\n//      */ \r\n\r\n    function updateTaxHolderAddress(address marketingAddress, address devAddress, address charityAddress) external {\r\n        marketing_address = marketingAddress;\r\n        dev_address = devAddress;\r\n        charity_address = charityAddress;\r\n    }\r\n\r\n     /* *\r\n     * @dev to update burn percentage while transation\r\n     * @param burn_percentage\r\n     */ \r\nfunction updateBurnPercentage(uint256 _burnPercentage) external {\r\n        burnPercentage = _burnPercentage;\r\n    }\r\n\r\n\r\n//      // add the tax amount to the tax holder\r\n\r\n    function taxCalculation() internal{\r\n            \r\n            balance_of[marketing_address] += totalMarketingPercentage;\r\n            balance_of[dev_address] += totalDevPercentage;\r\n            balance_of[charity_address] += totalCharityPercentage;\r\n            totalTaxValue = 0;\r\n    }\r\n        function transferTaxCalculation(uint256 amount) internal{\r\n        uint256 transferTax = percentageCalculate(transferTaxPercentage, amount);\r\n       totalTransferTaxAmount += transferTax;\r\n    //    if(balanceOfTransferTaxAmount>= 50){\r\n    //    }\r\n    }\r\n\r\n\r\n}",
  "sourcePath": "D:\\madhu\\contracts\\ERC20.sol",
  "compiler": {
    "name": "solc",
    "version": "0.8.7+commit.e28d00a7.Emscripten.clang"
  },
  "schemaVersion": "3.4.10",
  "updatedAt": "2022-11-02T11:50:45.704Z",
  "networkType": "ethereum",
  "devdoc": {
    "kind": "dev",
    "methods": {},
    "version": 1
  },
  "userdoc": {
    "kind": "user",
    "methods": {},
    "version": 1
  }
}