{
  "contractName": "ERC20",
  "abi": [
    {
      "inputs": [],
      "stateMutability": "nonpayable",
      "type": "constructor"
    },
    {
      "inputs": [],
      "name": "burnAmount",
      "outputs": [
        {
          "internalType": "uint256",
          "name": "",
          "type": "uint256"
        }
      ],
      "stateMutability": "view",
      "type": "function",
      "constant": true
    },
    {
      "inputs": [],
      "name": "burnPercentage",
      "outputs": [
        {
          "internalType": "uint256",
          "name": "",
          "type": "uint256"
        }
      ],
      "stateMutability": "view",
      "type": "function",
      "constant": true
    },
    {
      "inputs": [],
      "name": "charity_tx_percentage",
      "outputs": [
        {
          "internalType": "uint256",
          "name": "",
          "type": "uint256"
        }
      ],
      "stateMutability": "view",
      "type": "function",
      "constant": true
    },
    {
      "inputs": [],
      "name": "deposit",
      "outputs": [],
      "stateMutability": "payable",
      "type": "function",
      "payable": true
    },
    {
      "inputs": [],
      "name": "dev_tx_percentage",
      "outputs": [
        {
          "internalType": "uint256",
          "name": "",
          "type": "uint256"
        }
      ],
      "stateMutability": "view",
      "type": "function",
      "constant": true
    },
    {
      "inputs": [],
      "name": "marketing_tx_percentage",
      "outputs": [
        {
          "internalType": "uint256",
          "name": "",
          "type": "uint256"
        }
      ],
      "stateMutability": "view",
      "type": "function",
      "constant": true
    },
    {
      "inputs": [],
      "name": "totalCharityPercentage",
      "outputs": [
        {
          "internalType": "uint256",
          "name": "",
          "type": "uint256"
        }
      ],
      "stateMutability": "view",
      "type": "function",
      "constant": true
    },
    {
      "inputs": [],
      "name": "totalDevPercentage",
      "outputs": [
        {
          "internalType": "uint256",
          "name": "",
          "type": "uint256"
        }
      ],
      "stateMutability": "view",
      "type": "function",
      "constant": true
    },
    {
      "inputs": [],
      "name": "totalMarketingPercentage",
      "outputs": [
        {
          "internalType": "uint256",
          "name": "",
          "type": "uint256"
        }
      ],
      "stateMutability": "view",
      "type": "function",
      "constant": true
    },
    {
      "inputs": [],
      "name": "totalTaxPercentage",
      "outputs": [
        {
          "internalType": "uint256",
          "name": "",
          "type": "uint256"
        }
      ],
      "stateMutability": "view",
      "type": "function",
      "constant": true
    },
    {
      "inputs": [],
      "name": "totalTaxValue",
      "outputs": [
        {
          "internalType": "uint256",
          "name": "",
          "type": "uint256"
        }
      ],
      "stateMutability": "view",
      "type": "function",
      "constant": true
    },
    {
      "inputs": [
        {
          "internalType": "address payable",
          "name": "to",
          "type": "address"
        },
        {
          "internalType": "uint256",
          "name": "value",
          "type": "uint256"
        }
      ],
      "name": "transferNativeCurrenc",
      "outputs": [],
      "stateMutability": "payable",
      "type": "function",
      "payable": true
    },
    {
      "stateMutability": "payable",
      "type": "receive",
      "payable": true
    },
    {
      "inputs": [],
      "name": "name",
      "outputs": [
        {
          "internalType": "string",
          "name": "",
          "type": "string"
        }
      ],
      "stateMutability": "view",
      "type": "function",
      "constant": true
    },
    {
      "inputs": [],
      "name": "symbol",
      "outputs": [
        {
          "internalType": "string",
          "name": "",
          "type": "string"
        }
      ],
      "stateMutability": "view",
      "type": "function",
      "constant": true
    },
    {
      "inputs": [],
      "name": "decimals",
      "outputs": [
        {
          "internalType": "uint256",
          "name": "",
          "type": "uint256"
        }
      ],
      "stateMutability": "view",
      "type": "function",
      "constant": true
    },
    {
      "inputs": [],
      "name": "totalSupply",
      "outputs": [
        {
          "internalType": "uint256",
          "name": "",
          "type": "uint256"
        }
      ],
      "stateMutability": "view",
      "type": "function",
      "constant": true
    },
    {
      "inputs": [
        {
          "internalType": "address",
          "name": "account",
          "type": "address"
        }
      ],
      "name": "balanceOf",
      "outputs": [
        {
          "internalType": "uint256",
          "name": "",
          "type": "uint256"
        }
      ],
      "stateMutability": "view",
      "type": "function",
      "constant": true
    },
    {
      "inputs": [
        {
          "internalType": "address",
          "name": "recipient",
          "type": "address"
        },
        {
          "internalType": "uint256",
          "name": "amount",
          "type": "uint256"
        }
      ],
      "name": "transfer",
      "outputs": [
        {
          "internalType": "bool",
          "name": "",
          "type": "bool"
        }
      ],
      "stateMutability": "nonpayable",
      "type": "function"
    },
    {
      "inputs": [
        {
          "internalType": "address",
          "name": "owner",
          "type": "address"
        },
        {
          "internalType": "address",
          "name": "spender",
          "type": "address"
        }
      ],
      "name": "allowance",
      "outputs": [
        {
          "internalType": "uint256",
          "name": "",
          "type": "uint256"
        }
      ],
      "stateMutability": "view",
      "type": "function",
      "constant": true
    },
    {
      "inputs": [
        {
          "internalType": "address",
          "name": "spender",
          "type": "address"
        },
        {
          "internalType": "uint256",
          "name": "amount",
          "type": "uint256"
        }
      ],
      "name": "approve",
      "outputs": [
        {
          "internalType": "bool",
          "name": "",
          "type": "bool"
        }
      ],
      "stateMutability": "nonpayable",
      "type": "function"
    },
    {
      "inputs": [
        {
          "internalType": "address",
          "name": "sender",
          "type": "address"
        },
        {
          "internalType": "address",
          "name": "recipient",
          "type": "address"
        },
        {
          "internalType": "uint256",
          "name": "amount",
          "type": "uint256"
        }
      ],
      "name": "transferFrom",
      "outputs": [
        {
          "internalType": "bool",
          "name": "",
          "type": "bool"
        }
      ],
      "stateMutability": "nonpayable",
      "type": "function"
    },
    {
      "inputs": [
        {
          "internalType": "address",
          "name": "spender",
          "type": "address"
        },
        {
          "internalType": "uint256",
          "name": "addedValue",
          "type": "uint256"
        }
      ],
      "name": "increaseAllowance",
      "outputs": [
        {
          "internalType": "bool",
          "name": "",
          "type": "bool"
        }
      ],
      "stateMutability": "nonpayable",
      "type": "function"
    },
    {
      "inputs": [
        {
          "internalType": "address",
          "name": "spender",
          "type": "address"
        },
        {
          "internalType": "uint256",
          "name": "subtractedValue",
          "type": "uint256"
        }
      ],
      "name": "decreaseAllowance",
      "outputs": [
        {
          "internalType": "bool",
          "name": "",
          "type": "bool"
        }
      ],
      "stateMutability": "nonpayable",
      "type": "function"
    },
    {
      "inputs": [
        {
          "internalType": "uint256",
          "name": "marketingTaxPercentage",
          "type": "uint256"
        },
        {
          "internalType": "uint256",
          "name": "devTaxPercentage",
          "type": "uint256"
        },
        {
          "internalType": "uint256",
          "name": "charityTaxPercentage",
          "type": "uint256"
        }
      ],
      "name": "updateTxPercentage",
      "outputs": [],
      "stateMutability": "nonpayable",
      "type": "function"
    },
    {
      "inputs": [
        {
          "internalType": "address",
          "name": "marketingAddress",
          "type": "address"
        },
        {
          "internalType": "address",
          "name": "devAddress",
          "type": "address"
        },
        {
          "internalType": "address",
          "name": "charityAddress",
          "type": "address"
        }
      ],
      "name": "updateTaxHolderAddress",
      "outputs": [],
      "stateMutability": "nonpayable",
      "type": "function"
    },
    {
      "inputs": [
        {
          "internalType": "uint256",
          "name": "_burnPercentage",
          "type": "uint256"
        }
      ],
      "name": "updateBurnPercentage",
      "outputs": [],
      "stateMutability": "nonpayable",
      "type": "function"
    }
  ],
  "bytecode": "0x6080604052601260028190556200001890600a62000247565b6200002890637735940062000312565b6003908155600160068190556002600755600891909155600e55601180546001600160a01b031990811673dd870fa1b7c4700f2bd7f44238821c26f73921481790915560128054821673583031d1113ad414f02576bd6afabfb302140225179055601380549091167314723a09acff6d2a60dcdf7aa4aff308fddc160c179055348015620000b557600080fd5b5060408051808201909152600c8082526b537061726b20546f6b656e7360a01b6020909201918252620000eb9160009162000158565b506040805180820190915260038082526253504b60e81b6020909201918252620001189160019162000158565b5060035433600090815260046020526040902055601080546001600160a01b031916735705d286e8fc970ca5dfa5c480b708126b6fcb0317905562000387565b828054620001669062000334565b90600052602060002090601f0160209004810192826200018a5760008555620001d5565b82601f10620001a557805160ff1916838001178555620001d5565b82800160010185558215620001d5579182015b82811115620001d5578251825591602001919060010190620001b8565b50620001e3929150620001e7565b5090565b5b80821115620001e35760008155600101620001e8565b600181815b808511156200023f57816000190482111562000223576200022362000371565b808516156200023157918102915b93841c939080029062000203565b509250929050565b60006200025583836200025c565b9392505050565b6000826200026d575060016200030c565b816200027c575060006200030c565b8160018114620002955760028114620002a057620002c0565b60019150506200030c565b60ff841115620002b457620002b462000371565b50506001821b6200030c565b5060208310610133831016604e8410600b8410161715620002e5575081810a6200030c565b620002f18383620001fe565b806000190482111562000308576200030862000371565b0290505b92915050565b60008160001904831182151516156200032f576200032f62000371565b500290565b600181811c908216806200034957607f821691505b602082108114156200036b57634e487b7160e01b600052602260045260246000fd5b50919050565b634e487b7160e01b600052601160045260246000fd5b610e8480620003976000396000f3fe6080604052600436106101855760003560e01c8063a457c2d7116100d1578063d03952981161008a578063ea14a50911610064578063ea14a50914610450578063f01f20df14610470578063f2b783ff14610486578063fff5a9fb146104af57600080fd5b8063d0395298146103f4578063d0e30db01461021e578063dd62ed3e1461040a57600080fd5b8063a457c2d714610318578063a9059cbb14610338578063ae1bb4d714610358578063be2910eb1461036e578063c03fc517146103c8578063c6be09ab146103de57600080fd5b806332e7d2f81161013e57806369f28a8c1161011857806369f28a8c146102a157806370a08231146102b757806395c7b984146102ed57806395d89b411461030357600080fd5b806332e7d2f814610255578063395093511461026b578063486a7e6b1461028b57600080fd5b806306fdde0314610191578063095ea7b3146101bc57806318160ddd146101ec5780631ea3ccf11461020b57806323b872dd14610220578063313ce5671461024057600080fd5b3661018c57005b600080fd5b34801561019d57600080fd5b506101a66104c5565b6040516101b39190610cb4565b60405180910390f35b3480156101c857600080fd5b506101dc6101d7366004610b7e565b610557565b60405190151581526020016101b3565b3480156101f857600080fd5b506003545b6040519081526020016101b3565b61021e610219366004610b7e565b6105a3565b005b34801561022c57600080fd5b506101dc61023b366004610c2e565b610600565b34801561024c57600080fd5b506002546101fd565b34801561026157600080fd5b506101fd600a5481565b34801561027757600080fd5b506101dc610286366004610b7e565b610659565b34801561029757600080fd5b506101fd600d5481565b3480156102ad57600080fd5b506101fd60085481565b3480156102c357600080fd5b506101fd6102d2366004610b5a565b6001600160a01b031660009081526004602052604090205490565b3480156102f957600080fd5b506101fd600c5481565b34801561030f57600080fd5b506101a6610666565b34801561032457600080fd5b506101dc610333366004610b7e565b610675565b34801561034457600080fd5b506101dc610353366004610b7e565b610682565b34801561036457600080fd5b506101fd60095481565b34801561037a57600080fd5b5061021e610389366004610be3565b601180546001600160a01b039485166001600160a01b031991821617909155601280549385169382169390931790925560138054919093169116179055565b3480156103d457600080fd5b506101fd60075481565b3480156103ea57600080fd5b506101fd60065481565b34801561040057600080fd5b506101fd600b5481565b34801561041657600080fd5b506101fd610425366004610baa565b6001600160a01b03918216600090815260056020908152604080832093909416825291909152205490565b34801561045c57600080fd5b5061021e61046b366004610c6f565b600e55565b34801561047c57600080fd5b506101fd600e5481565b34801561049257600080fd5b5061021e6104a1366004610c88565b600692909255600755600855565b3480156104bb57600080fd5b506101fd600f5481565b6060600080546104d490610de5565b80601f016020809104026020016040519081016040528092919081815260200182805461050090610de5565b801561054d5780601f106105225761010080835404028352916020019161054d565b820191906000526020600020905b81548152906001019060200180831161053057829003601f168201915b5050505050905090565b3360009081526004602052604081205482111561058f5760405162461bcd60e51b815260040161058690610d4a565b60405180910390fd5b61059a3384846106ea565b50600192915050565b47348110156105c45760405162461bcd60e51b815260040161058690610d4a565b6040516001600160a01b0384169083156108fc029084906000818181858888f193505050501580156105fa573d6000803e3d6000fd5b50505050565b600061060d8484846106ea565b6106188484846107a7565b6001600160a01b03831660009081526004602052604081208054849290610640908490610d75565b9091555061064f90508261081c565b5060019392505050565b600061059a3384846106ea565b6060600180546104d490610de5565b600061059a3384846107a7565b6010546000906001600160a01b031633146106df5760405162461bcd60e51b815260206004820152601760248201527f4f6e6c79206f776e65722063616e207472616e736665720000000000000000006044820152606401610586565b61059a3384846108fe565b6001600160a01b0382166107105760405162461bcd60e51b815260040161058690610d09565b6001600160a01b0383166107665760405162461bcd60e51b815260206004820152601f60248201527f5370656e646572206163636f756e74206973205a65726f206163636f756e74006044820152606401610586565b6001600160a01b0380841660009081526005602090815260408083209386168352929052908120805483929061079d908490610d75565b9091555050505050565b6001600160a01b038084166000908152600560209081526040808320938616835292905220548111156107ec5760405162461bcd60e51b815260040161058690610d4a565b6001600160a01b039092166000908152600560209081526040808320338452909152902080549290920390915550565b60065460009061082c9083610a9c565b905080600a60008282546108409190610d75565b90915550506007546000906108559084610a9c565b905080600b60008282546108699190610d75565b909155505060085460009061087e9085610a9c565b905080600c60008282546108929190610d75565b909155508190506108a38385610d75565b6108ad9190610d75565b600f55600c54600b54600a546108c39190610d75565b6108cd9190610d75565b600981905568056bc75e2d63100000116105fa576108e9610abd565b6000600a819055600b819055600c5550505050565b6001600160a01b0382166109245760405162461bcd60e51b815260040161058690610d09565b6001600160a01b03831661097a5760405162461bcd60e51b815260206004820152601f60248201527f5370656e646572206163636f756e74206973205a65726f206163636f756e74006044820152606401610586565b6001600160a01b0383166000908152600460205260409020548111156109b25760405162461bcd60e51b815260040161058690610d4a565b6001600160a01b038316600090815260046020526040812080548392906109da908490610dce565b9091555050600e546064906109ef9083610daf565b6109f99190610d8d565b600d81905560038054600090610a10908490610dce565b9091555050600d54600080805260046020527f17ef568e3e12ab5b9c7254a8d58478811de00f9e6eb34345acd53bf8fd09d3ec8054909190610a53908490610d75565b9091555050600d54610a6e90610a699083610dce565b61081c565b600f54610a7b9082610dce565b6001600160a01b039092166000908152600460205260409020919091555050565b6000806064610aab8585610daf565b610ab59190610d8d565b949350505050565b600a546011546001600160a01b031660009081526004602052604081208054909190610aea908490610d75565b9091555050600b546012546001600160a01b031660009081526004602052604081208054909190610b1c908490610d75565b9091555050600c546013546001600160a01b031660009081526004602052604081208054909190610b4e908490610d75565b90915550506000600955565b600060208284031215610b6c57600080fd5b8135610b7781610e36565b9392505050565b60008060408385031215610b9157600080fd5b8235610b9c81610e36565b946020939093013593505050565b60008060408385031215610bbd57600080fd5b8235610bc881610e36565b91506020830135610bd881610e36565b809150509250929050565b600080600060608486031215610bf857600080fd5b8335610c0381610e36565b92506020840135610c1381610e36565b91506040840135610c2381610e36565b809150509250925092565b600080600060608486031215610c4357600080fd5b8335610c4e81610e36565b92506020840135610c5e81610e36565b929592945050506040919091013590565b600060208284031215610c8157600080fd5b5035919050565b600080600060608486031215610c9d57600080fd5b505081359360208301359350604090920135919050565b600060208083528351808285015260005b81811015610ce157858101830151858201604001528201610cc5565b81811115610cf3576000604083870101525b50601f01601f1916929092016040019392505050565b60208082526021908201527f526563697069656e742061646472657373206973207a65726f206163636f756e6040820152601d60fa1b606082015260800190565b602080825260119082015270125b9cdd59999a58da595b9d08199d5b99607a1b604082015260600190565b60008219821115610d8857610d88610e20565b500190565b600082610daa57634e487b7160e01b600052601260045260246000fd5b500490565b6000816000190483118215151615610dc957610dc9610e20565b500290565b600082821015610de057610de0610e20565b500390565b600181811c90821680610df957607f821691505b60208210811415610e1a57634e487b7160e01b600052602260045260246000fd5b50919050565b634e487b7160e01b600052601160045260246000fd5b6001600160a01b0381168114610e4b57600080fd5b5056fea2646970667358221220f48db55cc5213ec586f6c85a4dac14d171e6eba0cec28b30ee0b8d72167f334564736f6c63430008070033",
  "immutableReferences": {},
  "source": "// SPDX-License-Identifier: MIT\r\n// OpenZeppelin Contracts (last updated v4.7.0) (token/ERC20/ERC20.sol)\r\n\r\npragma solidity 0.8.7;\r\n\r\nimport {LibraryFunction} from \"../contracts/LibraryFunction.sol\";\r\nimport \"../contracts/IERC20.sol\";\r\nimport \"../contracts/Payable.sol\";\r\n\r\ncontract ERC20 is IERC20, Payable{\r\n    string _name;\r\n    string _symbol;\r\n    uint256 _decimals = 18;\r\n    uint256 total_supply = 2000000000 * 10 ** _decimals;\r\n    mapping(address => uint256) balance_of;\r\n    mapping(address => mapping(address=> uint256)) _allowance;\r\n\r\n    uint256 public marketing_tx_percentage = 1;\r\n    uint256 public dev_tx_percentage= 2;\r\n    uint256 public charity_tx_percentage = 3;\r\n    uint256 public totalTaxValue;\r\n    uint256 public totalMarketingPercentage;\r\n    uint256 public totalDevPercentage;\r\n    uint256 public totalCharityPercentage;\r\n    uint256 public burnAmount;\r\n    uint256 public burnPercentage = 1;\r\n    uint256 public totalTaxPercentage;\r\n     address ownerOfTransation;\r\n\r\n     address marketing_address = 0xdD870fA1b7C4700F2BD7f44238821C26f7392148;\r\n     address dev_address = 0x583031D1113aD414F02576BD6afaBfb302140225;\r\n     address charity_address = 0x14723A09ACff6D2A60DcdF7aA4AFf308FDDC160C;\r\n\r\n     using LibraryFunction for *;\r\n\r\n// to set the values of name, symbol and total supply\r\n\r\n    constructor() {\r\n        _name = \"Spark Tokens\";\r\n        _symbol = \"SPK\"; \r\n        balance_of[msg.sender] = total_supply;\r\n        ownerOfTransation = 0x5705d286e8fc970ca5dFa5C480b708126b6FcB03;\r\n    }\r\n\r\n// to view the name of a contract\r\n    function name() external view returns(string memory){\r\n        return _name;\r\n    }\r\n// To view the symbol of a contract\r\n    function symbol() external view returns(string memory){\r\n        return _symbol;\r\n    }\r\n\r\n// to view the decimal of a contract\r\n    function decimals() external view returns(uint256){\r\n        return _decimals;\r\n    }\r\n// to view the total supply of a contract\r\n    function totalSupply() external view override returns(uint256){\r\n        return total_supply;\r\n    }\r\n\r\n/* \r\n     * @dev displace the balance of an given account\r\n     * @param account\r\n     */\r\n\r\n    function balanceOf(address account) public view override returns(uint256){\r\n        return balance_of[account];\r\n    }\r\n\r\n /* \r\n     * @dev to transfer the token to the recipient from account holder to the recipient\r\n     * @param recipient and amount\r\n     */\r\n\r\n    function transfer(address recipient, uint256 amount) external override onlyOwner returns(bool){\r\n       _transfer(msg.sender, recipient, amount);\r\n       return true;\r\n    }\r\n\r\n    /* \r\n     * @dev get the allowance\r\n     * @param owner and spender\r\n     */\r\n\r\n    function allowance(address owner, address spender) public override view returns(uint256){\r\n        return _allowance[owner][spender];\r\n    } \r\n\r\n    /* \r\n     * @dev approve the allowance to the spender form the account holder\r\n     * @param spender and amount\r\n     */ \r\n\r\n    function approve(address spender, uint256 amount) external override returns(bool){\r\n        require(balance_of[msg.sender] >= amount,\"Insufficient fund\");\r\n       _approve(msg.sender, spender, amount);\r\n        return true;\r\n    }\r\n\r\n    /* \r\n     * @dev transfer allowance to the recipient\r\n     * @param sender, recipient and amount\r\n     */\r\n\r\n    function transferFrom(address sender, address recipient, uint256 amount) external override returns(bool){\r\n        _approve(sender, recipient, amount);\r\n        spend_allowance(sender, recipient, amount);\r\n        balance_of[recipient] += amount;\r\n        taxReduction(amount);  \r\n        return true;\r\n    }\r\n    modifier onlyOwner(){\r\n        require(msg.sender == ownerOfTransation, \"Only owner can transfer\");\r\n        _;\r\n     }\r\n\r\n    /* \r\n     * @dev check the spender token is greater than the given amount\r\n     * if the condition is passed, the amount will reduced from the account holder and sent to recipient\r\n     * @param spender, recipient and amount\r\n     */\r\n\r\n    function _transfer(address spender, address recipient, uint256 amount) internal {\r\n        require(recipient != address(0), \"Recipient address is zero account\");\r\n        require(spender != address(0), \"Spender account is Zero account\");\r\n        require(balance_of[spender] >= amount,\"Insufficient fund\");\r\n        balance_of[spender] -= amount;\r\n        burnAmount = amount * burnPercentage / 100;\r\n        total_supply -= burnAmount;\r\n        balance_of[address(0)] += burnAmount;\r\n        taxReduction(amount-burnAmount);\r\n        balance_of[recipient] = amount - totalTaxPercentage;\r\n    }\r\n\r\n    /* \r\n     * @dev calculate the tax amount, if the tax amount is greater than 100 * 10 ** 18 \r\n     * taxCalculation function will execute\r\n     * @param amount\r\n     */\r\n\r\n    function taxReduction(uint256 amount) internal {\r\n       uint256 marketingPercentage = marketing_tx_percentage.percentageCalculate(amount);\r\n       totalMarketingPercentage += marketingPercentage;\r\n       uint256 devPercentage = dev_tx_percentage.percentageCalculate(amount);\r\n       totalDevPercentage += devPercentage;\r\n       uint256 charityPercentage = charity_tx_percentage.percentageCalculate(amount);\r\n       totalCharityPercentage += charityPercentage;\r\n       totalTaxPercentage = (marketingPercentage + devPercentage + charityPercentage);\r\n        totalTaxValue = (totalMarketingPercentage + totalDevPercentage + totalCharityPercentage);\r\n        if(totalTaxValue >= 100 * 10 ** 18){\r\n        taxCalculation();\r\n        totalMarketingPercentage = 0;\r\n        totalDevPercentage = 0;\r\n        totalCharityPercentage = 0;\r\n        }\r\n    }\r\n\r\n    /* *\r\n     * @dev calculate the percentage value\r\n     * @param percent and amount\r\n     */\r\n\r\n    // function percentageCalculate(uint256 percent, uint256 amount) internal pure returns(uint256){\r\n    //     uint256 percentageValue = amount * percent / 100;\r\n    //     return percentageValue;\r\n    // }\r\n\r\n    /* *\r\n     * @dev add the amount to the allowance between spender and recipient\r\n     * @param spender, recipient and amount\r\n     */\r\n\r\n    function _approve(address spender, address recipient, uint256 amount) internal {\r\n        require(recipient != address(0), \"Recipient address is zero account\");\r\n        require(spender != address(0), \"Spender account is Zero account\");\r\n        _allowance[spender][recipient] += amount;\r\n    }\r\n\r\n /* *\r\n     * @dev reduce the amount from the allowance between spender and recipient\r\n     * @param spender, recipient and amount\r\n     */\r\n\r\n    function spend_allowance(address spender, address recipient, uint256 amount) internal {\r\n        require(_allowance[spender][recipient] >= amount,\"Insufficient fund\");\r\n        unchecked{\r\n            _allowance[spender][msg.sender] -= amount;\r\n        }\r\n    } \r\n\r\n/* *\r\n     * @dev increase the allowance between owner and spender\r\n     * @param spender and addValue\r\n     */\r\n\r\n    function increaseAllowance(address spender, uint256 addedValue) external returns(bool){\r\n        _approve(msg.sender, spender, addedValue);\r\n        return true;\r\n    }\r\n\r\n    /* *\r\n     * @dev decrease the allowance between owner and spender\r\n     * @param spender and addValue\r\n     */\r\n\r\n    function decreaseAllowance(address spender, uint256 subtractedValue) external returns(bool){\r\n        spend_allowance(msg.sender, spender, subtractedValue);\r\n        return true;\r\n    }\r\n\r\n   /* *\r\n     * @dev to increase the token of a contract\r\n     * @param account, amount\r\n     */  \r\n\r\n    function _mint(address account, uint256 amount) internal {\r\n        balance_of[account] += amount;\r\n        total_supply += amount;\r\n    }\r\n\r\n   /* *\r\n     * @dev to decrease the token of a user\r\n     * @param account, amount\r\n     */  \r\n\r\n    function _burn(address account, uint256 amount) internal view{\r\n        require(account != address(0), \"This is an Zero Account\");\r\n        require(balanceOf(account) >= amount, \"Insufficient fund\");\r\n        uint256 reduceBalanceOfUser = balanceOf(account);\r\n        reduceBalanceOfUser -= amount;\r\n        \r\n    }\r\n\r\n    /* *\r\n     * @dev to update the values of the tax percentage\r\n     * @param marketingTaxPercentage, devTaxPercentage and charityTaxPercentage\r\n     */ \r\n\r\n    function updateTxPercentage(uint256 marketingTaxPercentage, uint256 devTaxPercentage, uint256 charityTaxPercentage)external{\r\n        marketing_tx_percentage = marketingTaxPercentage;\r\n        dev_tx_percentage = devTaxPercentage;\r\n        charity_tx_percentage = charityTaxPercentage;\r\n    }\r\n\r\n /* *\r\n     * @dev to update the wallet of the tax holder\r\n     * @param marketingAddress, devAddress and charityAddress\r\n     */ \r\n\r\n    function updateTaxHolderAddress(address marketingAddress, address devAddress, address charityAddress) external {\r\n        marketing_address = marketingAddress;\r\n        dev_address = devAddress;\r\n        charity_address = charityAddress;\r\n    }\r\n\r\n     /* *\r\n     * @dev to update burn percentage while transation\r\n     * @param burn_percentage\r\n     */ \r\nfunction updateBurnPercentage(uint256 _burnPercentage) external {\r\n        burnPercentage = _burnPercentage;\r\n    }\r\n\r\n\r\n     // add the tax amount to the tax holder\r\n\r\n    function taxCalculation() internal{\r\n            \r\n            balance_of[marketing_address] += totalMarketingPercentage;\r\n            balance_of[dev_address] += totalDevPercentage;\r\n            balance_of[charity_address] += totalCharityPercentage;\r\n            totalTaxValue = 0;\r\n    }\r\n    \r\n\r\n}\r\n",
  "sourcePath": "D:\\madhu\\contracts\\ERC20.sol",
  "compiler": {
    "name": "solc",
    "version": "0.8.7+commit.e28d00a7.Emscripten.clang"
  },
  "schemaVersion": "3.4.10",
  "updatedAt": "2022-11-01T05:47:21.513Z",
  "networkType": "ethereum",
  "devdoc": {
    "kind": "dev",
    "methods": {},
    "version": 1
  },
  "userdoc": {
    "kind": "user",
    "methods": {},
    "version": 1
  }
}