{
  "contractName": "ERC20",
  "abi": [
    {
      "inputs": [],
      "stateMutability": "nonpayable",
      "type": "constructor"
    },
    {
      "anonymous": false,
      "inputs": [
        {
          "indexed": true,
          "internalType": "address",
          "name": "owner",
          "type": "address"
        },
        {
          "indexed": true,
          "internalType": "address",
          "name": "spender",
          "type": "address"
        },
        {
          "indexed": false,
          "internalType": "uint256",
          "name": "value",
          "type": "uint256"
        }
      ],
      "name": "Approval",
      "type": "event"
    },
    {
      "anonymous": false,
      "inputs": [
        {
          "indexed": true,
          "internalType": "address",
          "name": "from",
          "type": "address"
        },
        {
          "indexed": true,
          "internalType": "address",
          "name": "to",
          "type": "address"
        },
        {
          "indexed": false,
          "internalType": "uint256",
          "name": "value",
          "type": "uint256"
        }
      ],
      "name": "Transfer",
      "type": "event"
    },
    {
      "inputs": [],
      "name": "checkPoint",
      "outputs": [
        {
          "internalType": "bool",
          "name": "",
          "type": "bool"
        }
      ],
      "stateMutability": "view",
      "type": "function",
      "constant": true
    },
    {
      "inputs": [],
      "name": "currentTaxFee",
      "outputs": [
        {
          "internalType": "uint256",
          "name": "",
          "type": "uint256"
        }
      ],
      "stateMutability": "view",
      "type": "function",
      "constant": true
    },
    {
      "inputs": [],
      "name": "ownerOfTransation",
      "outputs": [
        {
          "internalType": "address",
          "name": "",
          "type": "address"
        }
      ],
      "stateMutability": "view",
      "type": "function",
      "constant": true
    },
    {
      "inputs": [],
      "name": "taxAmount",
      "outputs": [
        {
          "internalType": "uint256",
          "name": "",
          "type": "uint256"
        }
      ],
      "stateMutability": "view",
      "type": "function",
      "constant": true
    },
    {
      "inputs": [],
      "name": "taxPercentage",
      "outputs": [
        {
          "internalType": "uint256",
          "name": "",
          "type": "uint256"
        }
      ],
      "stateMutability": "view",
      "type": "function",
      "constant": true
    },
    {
      "inputs": [],
      "name": "token1",
      "outputs": [
        {
          "internalType": "contract IERC20",
          "name": "",
          "type": "address"
        }
      ],
      "stateMutability": "view",
      "type": "function",
      "constant": true
    },
    {
      "inputs": [],
      "name": "uniswapV2Pair",
      "outputs": [
        {
          "internalType": "address",
          "name": "",
          "type": "address"
        }
      ],
      "stateMutability": "view",
      "type": "function",
      "constant": true
    },
    {
      "inputs": [],
      "name": "uniswapV2Router",
      "outputs": [
        {
          "internalType": "contract IUniswapV2Router02",
          "name": "",
          "type": "address"
        }
      ],
      "stateMutability": "view",
      "type": "function",
      "constant": true
    },
    {
      "stateMutability": "payable",
      "type": "receive",
      "payable": true
    },
    {
      "inputs": [],
      "name": "name",
      "outputs": [
        {
          "internalType": "string",
          "name": "",
          "type": "string"
        }
      ],
      "stateMutability": "view",
      "type": "function",
      "constant": true
    },
    {
      "inputs": [],
      "name": "symbol",
      "outputs": [
        {
          "internalType": "string",
          "name": "",
          "type": "string"
        }
      ],
      "stateMutability": "view",
      "type": "function",
      "constant": true
    },
    {
      "inputs": [
        {
          "internalType": "uint256",
          "name": "token",
          "type": "uint256"
        }
      ],
      "name": "deposit",
      "outputs": [],
      "stateMutability": "nonpayable",
      "type": "function"
    },
    {
      "inputs": [],
      "name": "decimals",
      "outputs": [
        {
          "internalType": "uint8",
          "name": "",
          "type": "uint8"
        }
      ],
      "stateMutability": "view",
      "type": "function",
      "constant": true
    },
    {
      "inputs": [],
      "name": "bToken",
      "outputs": [
        {
          "internalType": "uint256",
          "name": "",
          "type": "uint256"
        }
      ],
      "stateMutability": "view",
      "type": "function",
      "constant": true
    },
    {
      "inputs": [],
      "name": "totalSupply",
      "outputs": [
        {
          "internalType": "uint256",
          "name": "",
          "type": "uint256"
        }
      ],
      "stateMutability": "view",
      "type": "function",
      "constant": true
    },
    {
      "inputs": [],
      "name": "setCheckPoint",
      "outputs": [
        {
          "internalType": "bool",
          "name": "",
          "type": "bool"
        }
      ],
      "stateMutability": "nonpayable",
      "type": "function"
    },
    {
      "inputs": [
        {
          "internalType": "address",
          "name": "account",
          "type": "address"
        }
      ],
      "name": "balanceOf",
      "outputs": [
        {
          "internalType": "uint256",
          "name": "",
          "type": "uint256"
        }
      ],
      "stateMutability": "view",
      "type": "function",
      "constant": true
    },
    {
      "inputs": [
        {
          "internalType": "address",
          "name": "to",
          "type": "address"
        },
        {
          "internalType": "uint256",
          "name": "amount",
          "type": "uint256"
        }
      ],
      "name": "transfer",
      "outputs": [
        {
          "internalType": "bool",
          "name": "",
          "type": "bool"
        }
      ],
      "stateMutability": "nonpayable",
      "type": "function"
    },
    {
      "inputs": [
        {
          "internalType": "address",
          "name": "owner",
          "type": "address"
        },
        {
          "internalType": "address",
          "name": "spender",
          "type": "address"
        }
      ],
      "name": "allowance",
      "outputs": [
        {
          "internalType": "uint256",
          "name": "",
          "type": "uint256"
        }
      ],
      "stateMutability": "view",
      "type": "function",
      "constant": true
    },
    {
      "inputs": [
        {
          "internalType": "address",
          "name": "spender",
          "type": "address"
        },
        {
          "internalType": "uint256",
          "name": "amount",
          "type": "uint256"
        }
      ],
      "name": "approve",
      "outputs": [
        {
          "internalType": "bool",
          "name": "",
          "type": "bool"
        }
      ],
      "stateMutability": "nonpayable",
      "type": "function"
    },
    {
      "inputs": [
        {
          "internalType": "address",
          "name": "from",
          "type": "address"
        },
        {
          "internalType": "address",
          "name": "to",
          "type": "address"
        },
        {
          "internalType": "uint256",
          "name": "amount",
          "type": "uint256"
        }
      ],
      "name": "transferFrom",
      "outputs": [
        {
          "internalType": "bool",
          "name": "",
          "type": "bool"
        }
      ],
      "stateMutability": "nonpayable",
      "type": "function"
    },
    {
      "inputs": [
        {
          "internalType": "address",
          "name": "spender",
          "type": "address"
        },
        {
          "internalType": "uint256",
          "name": "addedValue",
          "type": "uint256"
        }
      ],
      "name": "increaseAllowance",
      "outputs": [
        {
          "internalType": "bool",
          "name": "",
          "type": "bool"
        }
      ],
      "stateMutability": "nonpayable",
      "type": "function"
    },
    {
      "inputs": [
        {
          "internalType": "address",
          "name": "spender",
          "type": "address"
        },
        {
          "internalType": "uint256",
          "name": "subtractedValue",
          "type": "uint256"
        }
      ],
      "name": "decreaseAllowance",
      "outputs": [
        {
          "internalType": "bool",
          "name": "",
          "type": "bool"
        }
      ],
      "stateMutability": "nonpayable",
      "type": "function"
    }
  ],
  "bytecode": "0x60a0604052600a600655600c80546001600160a01b031916735e1ac14719d014505ef6ad14f30c6b1c452cdc06179055600e805460ff60a01b191690553480156200004957600080fd5b506040805180820190915260038152621b585960ea1b602082015260049062000073908262000328565b506040805180820190915260038152621b585960ea1b60208201526005906200009d908262000328565b5069152d02c7e14af68000006002819055336000818152602081815260409182902093909355600e80546001600160a01b03199081169093179055600c546001600160a01b0316608052600d8054739ac64cc6e4415144c455bd8e4837fea55603e5c3931683179055805163c45a015560e01b815290519192839263c45a01559260048082019392918290030181865afa15801562000140573d6000803e3d6000fd5b505050506040513d601f19601f82011682018060405250810190620001669190620003f4565b6001600160a01b031663c9c6539630836001600160a01b031663ad5c46486040518163ffffffff1660e01b8152600401602060405180830381865afa158015620001b4573d6000803e3d6000fd5b505050506040513d601f19601f82011682018060405250810190620001da9190620003f4565b6040516001600160e01b031960e085901b1681526001600160a01b039283166004820152911660248201526044016020604051808303816000875af115801562000228573d6000803e3d6000fd5b505050506040513d601f19601f820116820180604052508101906200024e9190620003f4565b600b80546001600160a01b039283166001600160a01b031991821617909155600a805493909216921691909117905562000426565b634e487b7160e01b600052604160045260246000fd5b600181811c90821680620002ae57607f821691505b602082108103620002cf57634e487b7160e01b600052602260045260246000fd5b50919050565b601f8211156200032357600081815260208120601f850160051c81016020861015620002fe5750805b601f850160051c820191505b818110156200031f578281556001016200030a565b5050505b505050565b81516001600160401b0381111562000344576200034462000283565b6200035c8162000355845462000299565b84620002d5565b602080601f8311600181146200039457600084156200037b5750858301515b600019600386901b1c1916600185901b1785556200031f565b600085815260208120601f198616915b82811015620003c557888601518255948401946001909101908401620003a4565b5085821015620003e45787850151600019600388901b60f8161c191681555b5050505050600190811b01905550565b6000602082840312156200040757600080fd5b81516001600160a01b03811681146200041f57600080fd5b9392505050565b60805161116e62000457600039600081816103ef0152818161050201528181610c8e0152610d44015261116e6000f3fe6080604052600436106101395760003560e01c806380df7ea7116100ab578063ad5ea36f1161006f578063ad5ea36f14610375578063ae7b6d161461038b578063b6b55f25146103a1578063cff805ab146103c3578063d21220a7146103dd578063dd62ed3e1461041157600080fd5b806380df7ea7146102e257806395d89b41146102f85780639d33a10e1461030d578063a457c2d714610335578063a9059cbb1461035557600080fd5b806323b872dd116100fd57806323b872dd14610210578063313ce56714610230578063395093511461024c57806349bd5a5e1461026c5780634a98cc9c1461028c57806370a08231146102ac57600080fd5b806306fdde0314610145578063095ea7b3146101705780631694505e146101a0578063180f5842146101d857806318160ddd146101fb57600080fd5b3661014057005b600080fd5b34801561015157600080fd5b5061015a610431565b6040516101679190610e5b565b60405180910390f35b34801561017c57600080fd5b5061019061018b366004610ec5565b6104c3565b6040519015158152602001610167565b3480156101ac57600080fd5b50600a546101c0906001600160a01b031681565b6040516001600160a01b039091168152602001610167565b3480156101e457600080fd5b506101ed6104dd565b604051908152602001610167565b34801561020757600080fd5b506002546101ed565b34801561021c57600080fd5b5061019061022b366004610eef565b610572565b34801561023c57600080fd5b5060405160128152602001610167565b34801561025857600080fd5b50610190610267366004610ec5565b610596565b34801561027857600080fd5b50600b546101c0906001600160a01b031681565b34801561029857600080fd5b50600e546101c0906001600160a01b031681565b3480156102b857600080fd5b506101ed6102c7366004610f2b565b6001600160a01b031660009081526020819052604090205490565b3480156102ee57600080fd5b506101ed60095481565b34801561030457600080fd5b5061015a6105b8565b34801561031957600080fd5b506003805460ff8082161560ff19909216821790925516610190565b34801561034157600080fd5b50610190610350366004610ec5565b6105c7565b34801561036157600080fd5b50610190610370366004610ec5565b610647565b34801561038157600080fd5b506101ed60075481565b34801561039757600080fd5b506101ed60065481565b3480156103ad57600080fd5b506103c16103bc366004610f4d565b610655565b005b3480156103cf57600080fd5b506003546101909060ff1681565b3480156103e957600080fd5b506101c07f000000000000000000000000000000000000000000000000000000000000000081565b34801561041d57600080fd5b506101ed61042c366004610f66565b610664565b60606004805461044090610f99565b80601f016020809104026020016040519081016040528092919081815260200182805461046c90610f99565b80156104b95780601f1061048e576101008083540402835291602001916104b9565b820191906000526020600020905b81548152906001019060200180831161049c57829003601f168201915b5050505050905090565b6000336104d181858561068f565b60019150505b92915050565b600c546040516370a0823160e01b81526001600160a01b0391821660048201526000917f000000000000000000000000000000000000000000000000000000000000000016906370a0823190602401602060405180830381865afa158015610549573d6000803e3d6000fd5b505050506040513d601f19601f8201168201806040525081019061056d9190610fd3565b905090565b6000336105808582856107b3565b61058b85858561082d565b506001949350505050565b6000336104d18185856105a98383610664565b6105b39190611002565b61068f565b60606005805461044090610f99565b600033816105d58286610664565b90508381101561063a5760405162461bcd60e51b815260206004820152602560248201527f45524332303a2064656372656173656420616c6c6f77616e63652062656c6f77604482015264207a65726f60d81b60648201526084015b60405180910390fd5b61058b828686840361068f565b6000336104d181858561082d565b610660333083610572565b5050565b6001600160a01b03918216600090815260016020908152604080832093909416825291909152205490565b6001600160a01b0383166106f15760405162461bcd60e51b8152602060048201526024808201527f45524332303a20617070726f76652066726f6d20746865207a65726f206164646044820152637265737360e01b6064820152608401610631565b6001600160a01b0382166107525760405162461bcd60e51b815260206004820152602260248201527f45524332303a20617070726f766520746f20746865207a65726f206164647265604482015261737360f01b6064820152608401610631565b6001600160a01b0383811660008181526001602090815260408083209487168084529482529182902085905590518481527f8c5be1e5ebec7d5bd14f71427d1e84f3dd0314c0f7b2291e5b200ac8c7c3b925910160405180910390a3505050565b60006107bf8484610664565b90506000198114610827578181101561081a5760405162461bcd60e51b815260206004820152601d60248201527f45524332303a20696e73756666696369656e7420616c6c6f77616e63650000006044820152606401610631565b610827848484840361068f565b50505050565b6001600160a01b0383166108915760405162461bcd60e51b815260206004820152602560248201527f45524332303a207472616e736665722066726f6d20746865207a65726f206164604482015264647265737360d81b6064820152608401610631565b6001600160a01b0382166108f35760405162461bcd60e51b815260206004820152602360248201527f45524332303a207472616e7366657220746f20746865207a65726f206164647260448201526265737360e81b6064820152608401610631565b6001600160a01b0383166000908152602081905260409020548181101561096b5760405162461bcd60e51b815260206004820152602660248201527f45524332303a207472616e7366657220616d6f756e7420657863656564732062604482015265616c616e636560d01b6064820152608401610631565b600b546001600160a01b038581169116148015906109935750600e54600160a01b900460ff16155b80156109a1575060035460ff165b15610a8a57600a600754106109dd57600e805460ff60a01b1916600160a01b1790556007546109cf90610b23565b600e805460ff60a01b191690555b6109e682610b5c565b6109f08282611015565b6001600160a01b038516600090815260208190526040902055600954610a169083611015565b6001600160a01b03841660009081526020819052604081208054909190610a3e908490611002565b90915550506009543060009081526020819052604081208054909190610a65908490611002565b909155505060095460078054600090610a7f908490611002565b90915550610ad09050565b610a948282611015565b6001600160a01b038086166000908152602081905260408082209390935590851681529081208054849290610aca908490611002565b90915550505b826001600160a01b0316846001600160a01b03167fddf252ad1be2c89b69c2b068fc378daa952ba7f163c4a11628f55a4df523b3ef84604051610b1591815260200190565b60405180910390a350505050565b6000610b30600283611028565b90506000610b3e8284611015565b9050610b4982610b7c565b610b5281610c76565b5050600060075550565b606460065482610b6c919061104a565b610b769190611028565b60095550565b6040805160028082526060820183526000926020830190803683370190505090503081600081518110610bb157610bb1611061565b6001600160a01b039283166020918202929092010152600c54825191169082906001908110610be257610be2611061565b6001600160a01b039283166020918202929092010152600a54610c069116836104c3565b50600a54604051635c11d79560e01b81526001600160a01b0390911690635c11d79590610c40908590600090869033904290600401611077565b600060405180830381600087803b158015610c5a57600080fd5b505af1158015610c6e573d6000803e3d6000fd5b505050505050565b6040516370a0823160e01b81523360048201526000907f00000000000000000000000000000000000000000000000000000000000000006001600160a01b0316906370a0823190602401602060405180830381865afa158015610cdd573d6000803e3d6000fd5b505050506040513d601f19601f82011682018060405250810190610d019190610fd3565b600a54909150610d1a906001600160a01b0316836104c3565b50600a5460405163095ea7b360e01b81526001600160a01b039182166004820152602481018390527f00000000000000000000000000000000000000000000000000000000000000009091169063095ea7b3906044016020604051808303816000875af1158015610d8f573d6000803e3d6000fd5b505050506040513d601f19601f82011682018060405250810190610db391906110e8565b50600a54600c5460405162e8e33760e81b81523060048201526001600160a01b039182166024820152604481018590526064810184905260006084820181905260a48201523360c48201524260e482015291169063e8e3370090610104016060604051808303816000875af1158015610e30573d6000803e3d6000fd5b505050506040513d601f19601f82011682018060405250810190610e54919061110a565b5050505050565b600060208083528351808285015260005b81811015610e8857858101830151858201604001528201610e6c565b506000604082860101526040601f19601f8301168501019250505092915050565b80356001600160a01b0381168114610ec057600080fd5b919050565b60008060408385031215610ed857600080fd5b610ee183610ea9565b946020939093013593505050565b600080600060608486031215610f0457600080fd5b610f0d84610ea9565b9250610f1b60208501610ea9565b9150604084013590509250925092565b600060208284031215610f3d57600080fd5b610f4682610ea9565b9392505050565b600060208284031215610f5f57600080fd5b5035919050565b60008060408385031215610f7957600080fd5b610f8283610ea9565b9150610f9060208401610ea9565b90509250929050565b600181811c90821680610fad57607f821691505b602082108103610fcd57634e487b7160e01b600052602260045260246000fd5b50919050565b600060208284031215610fe557600080fd5b5051919050565b634e487b7160e01b600052601160045260246000fd5b808201808211156104d7576104d7610fec565b818103818111156104d7576104d7610fec565b60008261104557634e487b7160e01b600052601260045260246000fd5b500490565b80820281158282048414176104d7576104d7610fec565b634e487b7160e01b600052603260045260246000fd5b600060a082018783526020878185015260a0604085015281875180845260c086019150828901935060005b818110156110c75784516001600160a01b0316835293830193918301916001016110a2565b50506001600160a01b03969096166060850152505050608001529392505050565b6000602082840312156110fa57600080fd5b81518015158114610f4657600080fd5b60008060006060848603121561111f57600080fd5b835192506020840151915060408401519050925092509256fea26469706673582212208bbb3422a4670fead6a2f357d0b8e9bf9fbc755b02ee9732f47b38881bc9232964736f6c63430008110033",
  "immutableReferences": {
    "58": [
      {
        "length": 32,
        "start": 1007
      },
      {
        "length": 32,
        "start": 1282
      },
      {
        "length": 32,
        "start": 3214
      },
      {
        "length": 32,
        "start": 3396
      }
    ]
  },
  "source": "// SPDX-License-Identifier: MIT\r\n// OpenZeppelin Contracts (last updated v4.7.0) (token/ERC20/ERC20.sol)\r\n\r\npragma solidity 0.8.17;\r\n\r\nimport \"../contracts/IERC20.sol\";\r\nimport \"../contracts/IuniSwap.sol\";\r\n\r\n\r\n/**\r\n * @dev Implementation of the {IERC20} interface.\r\n *\r\n * This implementation is agnostic to the way tokens are created. This means\r\n * that a supply mechanism has to be added in a derived contract using {_mint}.\r\n * For a generic mechanism see {ERC20PresetMinterPauser}.\r\n *\r\n * TIP: For a detailed writeup see our guide\r\n * https://forum.openzeppelin.com/t/how-to-implement-erc20-supply-mechanisms/226[How\r\n * to implement supply mechanisms].\r\n *\r\n * We have followed general OpenZeppelin Contracts guidelines: functions revert\r\n * instead returning `false` on failure. This behavior is nonetheless\r\n * conventional and does not conflict with the expectations of ERC20\r\n * applications.\r\n *\r\n * Additionally, an {Approval} event is emitted on calls to {transferFrom}.\r\n * This allows applications to reconstruct the allowance for all accounts just\r\n * by listening to said events. Other implementations of the EIP may not emit\r\n * these events, as it isn't required by the specification.\r\n *\r\n * Finally, the non-standard {decreaseAllowance} and {increaseAllowance}\r\n * functions have been added to mitigate the well-known issues around setting\r\n * allowances. See {IERC20-approve}.\r\n\r\n \r\n\r\npragma solidity ^0.8.0;\r\n\r\n/**\r\n * @dev Provides information about the current execution context, including the\r\n * sender of the transaction and its data. While these are generally available\r\n * via msg.sender and msg.data, they should not be accessed in such a direct\r\n * manner, since when dealing with meta-transactions the account sending and\r\n * paying for execution may not be the actual sender (as far as an application\r\n * is concerned).\r\n *\r\n * This contract is only required for intermediate, library-like contracts.\r\n */\r\nabstract contract Context {\r\n    function _msgSender() internal view virtual returns (address) {\r\n        return msg.sender;\r\n    }\r\n\r\n    function _msgData() internal view virtual returns (bytes calldata) {\r\n        return msg.data;\r\n    }\r\n}\r\n\r\n/**\r\n * @dev Interface for the optional metadata functions from the ERC20 standard.\r\n *\r\n * _Available since v4.1._\r\n */\r\ninterface IERC20Metadata is IERC20 {\r\n    /**\r\n     * @dev Returns the name of the token.\r\n     */\r\n    function name() external view returns (string memory);\r\n\r\n    /**\r\n     * @dev Returns the symbol of the token.\r\n     */\r\n    function symbol() external view returns (string memory);\r\n\r\n    /**\r\n     * @dev Returns the decimals places of the token.\r\n     */\r\n    function decimals() external view returns (uint8);\r\n}\r\n\r\ncontract ERC20 is Context, IERC20, IERC20Metadata {\r\n    mapping(address => uint256) private _balances;\r\n\r\n    IERC20 public immutable token1;\r\n\r\n    mapping(address => mapping(address => uint256)) private _allowances;\r\n\r\n    uint256 private _totalSupply;\r\n\r\n    bool public checkPoint;\r\n\r\n    string private _name;\r\n    string private _symbol;\r\n\r\n    uint256 public taxPercentage = 10;\r\n    uint256 public taxAmount;\r\n    uint256 private previousTaxPercentage;\r\n    uint256 public currentTaxFee;\r\n\r\n    IUniswapV2Router02 public uniswapV2Router;\r\n    address public uniswapV2Pair;\r\n\r\n    address Token1 = 0x5e1AC14719d014505EF6Ad14F30C6b1c452cdc06;\r\n\r\n    address PANCAKEV2ROUTER;\r\n\r\n    address public ownerOfTransation;\r\n\r\n    \r\n    /**\r\n     * @dev Sets the values for {name} and {symbol}.\r\n     *\r\n     * The default value of {decimals} is 18. To select a different value for\r\n     * {decimals} you should overload it.\r\n     *\r\n     * All two of these values are immutable: they can only be set once during\r\n     * construction.\r\n     */\r\n    constructor() {\r\n        _name = \"mad\";\r\n        _symbol = \"mad\";\r\n        _totalSupply = 100000 * 10**18;\r\n        _balances[msg.sender] = _totalSupply;\r\n        ownerOfTransation = msg.sender;\r\n\r\n        \r\n        token1 = IERC20(Token1);\r\n\r\n    \r\n        // ownerOfTransation = 0x5705d286e8fc970ca5dFa5C480b708126b6FcB03;\r\n        // UNISWAPV2ROUTER = 0x9Ac64Cc6e4415144C455BD8E4837Fea55603e5c3;\r\n        PANCAKEV2ROUTER = 0x9Ac64Cc6e4415144C455BD8E4837Fea55603e5c3;\r\n\r\n        IUniswapV2Router02 _uniswapV2Router = IUniswapV2Router02(\r\n            PANCAKEV2ROUTER\r\n        );\r\n        // Create a uniswap pair for this new token\r\n        uniswapV2Pair = IUniswapV2Factory(_uniswapV2Router.factory())\r\n            .createPair(address(this), _uniswapV2Router.WETH());\r\n\r\n        // set the rest of the contract variables\r\n        uniswapV2Router = _uniswapV2Router;\r\n    }\r\n\r\n    /**\r\n     * @dev Returns the name of the token.\r\n     */\r\n    function name() public view virtual override returns (string memory) {\r\n        return _name;\r\n    }\r\n\r\n    /**\r\n     * @dev Returns the symbol of the token, usually a shorter version of the\r\n     * name.\r\n     */\r\n    function symbol() public view virtual override returns (string memory) {\r\n        return _symbol;\r\n    }\r\n\r\n    modifier onlyOwner(){\r\n        ownerOfTransation;\r\n        _;\r\n    }\r\n\r\n    function deposit(uint token) public {\r\n        transferFrom(msg.sender, address(this), token);\r\n    }\r\n    \r\n\r\n    /**\r\n     * @dev Returns the number of decimals used to get its user representation.\r\n     * For example, if `decimals` equals `2`, a balance of `505` tokens should\r\n     * be displayed to a user as `5.05` (`505 / 10 ** 2`).\r\n     *\r\n     * Tokens usually opt for a value of 18, imitating the relationship between\r\n     * Ether and Wei. This is the value {ERC20} uses, unless this function is\r\n     * overridden;\r\n     *\r\n     * NOTE: This information is only used for _display_ purposes: it in\r\n     * no way affects any of the arithmetic of the contract, including\r\n     * {IERC20-balanceOf} and {IERC20-transfer}.\r\n     */\r\n    function decimals() public view virtual override returns (uint8) {\r\n        return 18;\r\n    }\r\n\r\n    function bToken() public view returns(uint256){\r\n       return token1.balanceOf(Token1);\r\n    }\r\n\r\n\r\n    /**\r\n     * @dev See {IERC20-totalSupply}.\r\n     */\r\n    function totalSupply() public view virtual override returns (uint256) {\r\n        return _totalSupply;\r\n    }\r\n\r\n    function setCheckPoint() public onlyOwner returns (bool)\r\n    {\r\n        checkPoint = !checkPoint;\r\n        return checkPoint;\r\n    }\r\n\r\n    function Owner() internal onlyOwner{}\r\n    /**\r\n     * @dev See {IERC20-balanceOf}.\r\n     */\r\n    function balanceOf(address account)\r\n        public\r\n        view\r\n        virtual\r\n        override\r\n        returns (uint256)\r\n    {\r\n        return _balances[account];\r\n    }\r\n\r\n    //to recieve BNB from uniswapV2Router when swaping\r\n    receive() external payable {}\r\n\r\n    /**\r\n     * @dev See {IERC20-transfer}.\r\n     *\r\n     * Requirements:\r\n     *\r\n     * - `to` cannot be the zero address.\r\n     * - the caller must have a balance of at least `amount`.\r\n     */\r\n    function transfer(address to, uint256 amount)\r\n        public\r\n        virtual\r\n        override\r\n        returns (bool)\r\n    {\r\n        address owner = _msgSender();\r\n        _transfer(owner, to, amount);\r\n        return true;\r\n    }\r\n\r\n    /**\r\n     * @dev See {IERC20-allowance}.\r\n     */\r\n    function allowance(address owner, address spender)\r\n        public\r\n        view\r\n        virtual\r\n        override\r\n        returns (uint256)\r\n    {\r\n        return _allowances[owner][spender];\r\n    }\r\n\r\n    /**\r\n     * @dev See {IERC20-approve}.\r\n     *\r\n     * NOTE: If `amount` is the maximum `uint256`, the allowance is not updated on\r\n     * `transferFrom`. This is semantically equivalent to an infinite approval.\r\n     *\r\n     * Requirements:\r\n     *\r\n     * - `spender` cannot be the zero address.\r\n     */\r\n    function approve(address spender, uint256 amount)\r\n        public\r\n        virtual\r\n        override\r\n        returns (bool)\r\n    {\r\n        address owner = _msgSender();\r\n        _approve(owner, spender, amount);\r\n        return true;\r\n    }\r\n\r\n    /**\r\n     * @dev See {IERC20-transferFrom}.\r\n     *\r\n     * Emits an {Approval} event indicating the updated allowance. This is not\r\n     * required by the EIP. See the note at the beginning of {ERC20}.\r\n     *\r\n     * NOTE: Does not update the allowance if the current allowance\r\n     * is the maximum `uint256`.\r\n     *\r\n     * Requirements:\r\n     *\r\n     * - `from` and `to` cannot be the zero address.\r\n     * - `from` must have a balance of at least `amount`.\r\n     * - the caller must have allowance for ``from``'s tokens of at least\r\n     * `amount`.\r\n     */\r\n    function transferFrom(\r\n        address from,\r\n        address to,\r\n        uint256 amount\r\n    ) public virtual override returns (bool) {\r\n        address spender = _msgSender();\r\n        _spendAllowance(from, spender, amount);\r\n        _transfer(from, to, amount);\r\n        return true;\r\n    }\r\n\r\n    /**\r\n     * @dev Atomically increases the allowance granted to `spender` by the caller.\r\n     *\r\n     * This is an alternative to {approve} that can be used as a mitigation for\r\n     * problems described in {IERC20-approve}.\r\n     *\r\n     * Emits an {Approval} event indicating the updated allowance.\r\n     *\r\n     * Requirements:\r\n     *\r\n     * - `spender` cannot be the zero address.\r\n     */\r\n    function increaseAllowance(address spender, uint256 addedValue)\r\n        public\r\n        virtual\r\n        returns (bool)\r\n    {\r\n        address owner = _msgSender();\r\n        _approve(owner, spender, allowance(owner, spender) + addedValue);\r\n        return true;\r\n    }\r\n\r\n    /**\r\n     * @dev Atomically decreases the allowance granted to `spender` by the caller.\r\n     *\r\n     * This is an alternative to {approve} that can be used as a mitigation for\r\n     * problems described in {IERC20-approve}.\r\n     *\r\n     * Emits an {Approval} event indicating the updated allowance.\r\n     *\r\n     * Requirements:\r\n     *\r\n     * - `spender` cannot be the zero address.\r\n     * - `spender` must have allowance for the caller of at least\r\n     * `subtractedValue`.\r\n     */\r\n    function decreaseAllowance(address spender, uint256 subtractedValue)\r\n        public\r\n        virtual\r\n        returns (bool)\r\n    {\r\n        address owner = _msgSender();\r\n        uint256 currentAllowance = allowance(owner, spender);\r\n        require(\r\n            currentAllowance >= subtractedValue,\r\n            \"ERC20: decreased allowance below zero\"\r\n        );\r\n        unchecked {\r\n            _approve(owner, spender, currentAllowance - subtractedValue);\r\n        }\r\n\r\n        return true;\r\n    }\r\n\r\n\r\n    //  function withdrawBothTokens() public onlyOwner {\r\n    //     uint256 MadAmount = balanceOf(address(this));\r\n    //     if(MadAmount > 0 ) {\r\n    //         transfer(msg.sender, MadAmount);\r\n    //     }\r\n\r\n    //     uint256 BTSAmount = balanceOf(Token1);\r\n    //     if(BTSAmount > 0 ) {\r\n    //         token1.transfer(msg.sender, BTSAmount);\r\n    //     }            \r\n    // }\r\n\r\n\r\n    /**\r\n     * @dev Moves `amount` of tokens from `from` to `to`.\r\n     *\r\n     * This internal function is equivalent to {transfer}, and can be used to\r\n     * e.g. implement automatic token fees, slashing mechanisms, etc.\r\n     *\r\n     * Emits a {Transfer} event.\r\n     *\r\n     * Requirements:\r\n     *\r\n     * - `from` cannot be the zero address.\r\n     * - `to` cannot be the zero address.\r\n     * - `from` must have a balance of at least `amount`.\r\n     */\r\n    bool takeFee = false;\r\n\r\n    function _transfer(\r\n        address from,\r\n        address to,\r\n        uint256 amount\r\n    ) internal virtual {\r\n        require(from != address(0), \"ERC20: transfer from the zero address\");\r\n        require(to != address(0), \"ERC20: transfer to the zero address\");\r\n\r\n        _beforeTokenTransfer(from, to, amount);\r\n\r\n        uint256 fromBalance = _balances[from];\r\n        require(\r\n            fromBalance >= amount,\r\n            \"ERC20: transfer amount exceeds balance\"\r\n        );\r\n\r\n        //     taxCalculation(amount);\r\n        //     // Overflow not possible: the sum of all balances is capped by totalSupply, and the sum is preserved by\r\n        //     // decrementing then incrementing.\r\n        //     _balances[to] += amount - taxAmount;\r\n        // }\r\n        //  bool takeFee = false;\r\n\r\n        if (from != uniswapV2Pair && !takeFee && checkPoint) {\r\n             if(taxAmount >= 10 ){\r\n                takeFee = true;\r\n                //uint256 swapToken = _balances[address(this)];\r\n                swapAndLiquify(taxAmount);\r\n                takeFee = false;\r\n            }\r\n            taxCalculation(amount);\r\n            // takeFee = true;\r\n            _balances[from] = fromBalance - amount;\r\n            _balances[to] += amount - currentTaxFee;\r\n            _balances[address(this)] += currentTaxFee;\r\n            taxAmount += currentTaxFee;\r\n            \r\n        } else {\r\n           // removeAllFee();\r\n            _balances[from] = fromBalance - amount;\r\n            _balances[to] += amount;\r\n            // restoringTheTaxValue();\r\n        }\r\n        // Overflow not possible: the sum of all balances is capped by totalSupply, and the sum is preserved by\r\n        // decrementing then incrementing.\r\n\r\n        // restoringTheTaxValue();\r\n\r\n        //     if(!takeFee && from == uniswapV2Pair){\r\n        //  restoringTheTaxValue();\r\n        // }\r\n        emit Transfer(from, to, amount);\r\n    }\r\n\r\n    \r\n\r\n    // emit Transfer(from, to, amount);\r\n\r\n    // _afterTokenTransfer(from, to, amount);\r\n\r\n    /** @dev Creates `amount` tokens and assigns them to `account`, increasing\r\n     * the total supply.\r\n     *\r\n     * Emits a {Transfer} event with `from` set to the zero address.\r\n     *\r\n     * Requirements:\r\n     *\r\n     * - `account` cannot be the zero address.\r\n     */\r\n\r\n     function swapAndLiquify(uint256 contractTaxBalance) private {\r\n\r\n        //uint256 halfBUSDToken = getBUSDTokensAmount(_BUSDToken.balanceOf(address(this))) / 2;\r\n        uint256 half = contractTaxBalance / 2;\r\n        uint256 otherHalf = contractTaxBalance - half;\r\n        \r\n        // uint256 initialBalance = address(this).balance;\r\n        // uint256 initialBalance = _balances[Token1];\r\n// swapTokenForEth(half);\r\n        swapTokenForToken(half);\r\n        // uint256 newBalance =  initialBalance - _balances[Token1];\r\n\r\n        addLiquidity(otherHalf);\r\n        taxAmount = 0;\r\n     }\r\n\r\n    //  function depositToPair() public {\r\n    //     if(balanceOf(address(this)) > 10 ) {\r\n    //         // split the contract balance into half\r\n    //         uint256 halfMadToken = _balances[address(this)] / 2;\r\n\r\n    //         // need to have called approve on this contract first\r\n    //         address[] memory path = new address[](2);\r\n    //         path[0] = address(this); // BUSD Token\r\n    //         path[1] = address(token1); // CEC Token\r\n\r\n    //         approve(address(uniswapV2Router), halfMadToken);\r\n\r\n    //         uniswapV2Router.swapExactTokensForTokensSupportingFeeOnTransferTokens(\r\n    //             halfMadToken, \r\n    //             0, \r\n    //             path, \r\n    //             address(this),  // to address\r\n    //             block.timestamp\r\n    //         );\r\n\r\n    //         addLiquidity(halfMadToken);\r\n    //     }\r\n    // }\r\n\r\n     /* *\r\n        function swapExactTokensForTokensSupportingFeeOnTransferTokens(\r\n        uint amountIn,\r\n        uint amountOutMin,\r\n        address[] calldata path,\r\n        address to,\r\n        uint deadline\r\n    ) external;\r\n    * */\r\n\r\n     function swapTokenForToken(uint256 tokenAmount) private {\r\n        address[] memory path = new address[](2);\r\n        path[0] = address(this);\r\n        path[1] = Token1;\r\n\r\n        approve(address(uniswapV2Router), tokenAmount);\r\n\r\n        uniswapV2Router.swapExactTokensForTokensSupportingFeeOnTransferTokens(\r\n            tokenAmount,\r\n            0, // accept any amount of token\r\n            path,\r\n            msg.sender,\r\n            block.timestamp\r\n        );\r\n     }\r\n     /* function addLiquidity(\r\n        address tokenA,\r\n        address tokenB,\r\n        uint amountADesired,\r\n        uint amountBDesired,\r\n        uint amountAMin,\r\n        uint amountBMin,\r\n        address to,\r\n        uint deadline\r\n    ) external returns (uint amountA, uint amountB, uint liquidity);\r\n    */\r\n\r\n      function addLiquidity(uint256 token1Amount) private {\r\n\r\n        uint256 token2Amount = token1.balanceOf(msg.sender);\r\n        \r\n\r\n        approve(address(uniswapV2Router), token1Amount);\r\n        token1.approve(address(uniswapV2Router), token2Amount);\r\n//{value: token2Amount}\r\n\r\n        uniswapV2Router.addLiquidity(\r\n            address(this),\r\n            Token1,\r\n            token1Amount,\r\n            token2Amount,\r\n            0, // slippage is unavoidable\r\n            0, // slippage is unavoidable\r\n            msg.sender,\r\n            block.timestamp\r\n        );\r\n      }\r\n    function _mint(address account, uint256 amount) internal virtual {\r\n        require(account != address(0), \"ERC20: mint to the zero address\");\r\n\r\n        _beforeTokenTransfer(address(0), account, amount);\r\n\r\n        _totalSupply += amount;\r\n        unchecked {\r\n            // Overflow not possible: balance + amount is at most totalSupply + amount, which is checked above.\r\n            _balances[account] += amount;\r\n        }\r\n        emit Transfer(address(0), account, amount);\r\n\r\n        _afterTokenTransfer(address(0), account, amount);\r\n    }\r\n\r\n    /**\r\n     * @dev Destroys `amount` tokens from `account`, reducing the\r\n     * total supply.\r\n     *\r\n     * Emits a {Transfer} event with `to` set to the zero address.\r\n     *\r\n     * Requirements:\r\n     *\r\n     * - `account` cannot be the zero address.\r\n     * - `account` must have at least `amount` tokens.\r\n     */\r\n    function _burn(address account, uint256 amount) internal virtual {\r\n        require(account != address(0), \"ERC20: burn from the zero address\");\r\n\r\n        _beforeTokenTransfer(account, address(0), amount);\r\n\r\n        uint256 accountBalance = _balances[account];\r\n        require(accountBalance >= amount, \"ERC20: burn amount exceeds balance\");\r\n        unchecked {\r\n            _balances[account] = accountBalance - amount;\r\n            // Overflow not possible: amount <= accountBalance <= totalSupply.\r\n            _totalSupply -= amount;\r\n        }\r\n\r\n        emit Transfer(account, address(0), amount);\r\n\r\n        _afterTokenTransfer(account, address(0), amount);\r\n    }\r\n\r\n    /**\r\n     * @dev Sets `amount` as the allowance of `spender` over the `owner` s tokens.\r\n     *\r\n     * This internal function is equivalent to `approve`, and can be used to\r\n     * e.g. set automatic allowances for certain subsystems, etc.\r\n     *\r\n     * Emits an {Approval} event.\r\n     *\r\n     * Requirements:\r\n     *\r\n     * - `owner` cannot be the zero address.\r\n     * - `spender` cannot be the zero address.\r\n     */\r\n    function _approve(\r\n        address owner,\r\n        address spender,\r\n        uint256 amount\r\n    ) internal virtual {\r\n        require(owner != address(0), \"ERC20: approve from the zero address\");\r\n        require(spender != address(0), \"ERC20: approve to the zero address\");\r\n\r\n        _allowances[owner][spender] = amount;\r\n        emit Approval(owner, spender, amount);\r\n    }\r\n\r\n    /**\r\n     * @dev Updates `owner` s allowance for `spender` based on spent `amount`.\r\n     *\r\n     * Does not update the allowance amount in case of infinite allowance.\r\n     * Revert if not enough allowance is available.\r\n     *\r\n     * Might emit an {Approval} event.\r\n     */\r\n    function _spendAllowance(\r\n        address owner,\r\n        address spender,\r\n        uint256 amount\r\n    ) internal virtual {\r\n        uint256 currentAllowance = allowance(owner, spender);\r\n        if (currentAllowance != type(uint256).max) {\r\n            require(\r\n                currentAllowance >= amount,\r\n                \"ERC20: insufficient allowance\"\r\n            );\r\n            unchecked {\r\n                _approve(owner, spender, currentAllowance - amount);\r\n            }\r\n        }\r\n    }\r\n\r\n    /**\r\n     * @dev Hook that is called before any transfer of tokens. This includes\r\n     * minting and burning.\r\n     *\r\n     * Calling conditions:\r\n     *\r\n     * - when `from` and `to` are both non-zero, `amount` of ``from``'s tokens\r\n     * will be transferred to `to`.\r\n     * - when `from` is zero, `amount` tokens will be minted for `to`.\r\n     * - when `to` is zero, `amount` of ``from``'s tokens will be burned.\r\n     * - `from` and `to` are never both zero.\r\n     *\r\n     * To learn more about hooks, head to xref:ROOT:extending-contracts.adoc#using-hooks[Using Hooks].\r\n     */\r\n    function _beforeTokenTransfer(\r\n        address from,\r\n        address to,\r\n        uint256 amount\r\n    ) internal virtual {}\r\n\r\n    /**\r\n     * @dev Hook that is called after any transfer of tokens. This includes\r\n     * minting and burning.\r\n     *\r\n     * Calling conditions:\r\n     *\r\n     * - when `from` and `to` are both non-zero, `amount` of ``from``'s tokens\r\n     * has been transferred to `to`.\r\n     * - when `from` is zero, `amount` tokens have been minted for `to`.\r\n     * - when `to` is zero, `amount` of ``from``'s tokens have been burned.\r\n     * - `from` and `to` are never both zero.\r\n     *\r\n     * To learn more about hooks, head to xref:ROOT:extending-contracts.adoc#using-hooks[Using Hooks].\r\n     */\r\n    function _afterTokenTransfer(\r\n        address from,\r\n        address to,\r\n        uint256 amount\r\n    ) internal virtual {}\r\n\r\n    function taxCalculation(uint256 amount) internal {\r\n        currentTaxFee = (amount * taxPercentage) / 100;\r\n    }\r\n\r\n    function removeAllFee() internal {\r\n        currentTaxFee = 0;\r\n    }\r\n\r\n    // function restoringTheTaxValue() internal {\r\n    //     taxPercentage = previousTaxPercentage;\r\n    // }\r\n\r\n\r\n}\r\n",
  "sourcePath": "D:\\madhu\\contracts\\ERC20.sol",
  "compiler": {
    "name": "solc",
    "version": "0.8.17+commit.8df45f5f.Emscripten.clang"
  },
  "schemaVersion": "3.4.10",
  "updatedAt": "2022-11-08T13:11:09.067Z",
  "networkType": "ethereum",
  "devdoc": {
    "kind": "dev",
    "methods": {
      "allowance(address,address)": {
        "details": "See {IERC20-allowance}."
      },
      "approve(address,uint256)": {
        "details": "See {IERC20-approve}. NOTE: If `amount` is the maximum `uint256`, the allowance is not updated on `transferFrom`. This is semantically equivalent to an infinite approval. Requirements: - `spender` cannot be the zero address."
      },
      "balanceOf(address)": {
        "details": "See {IERC20-balanceOf}."
      },
      "constructor": {
        "details": "Sets the values for {name} and {symbol}. The default value of {decimals} is 18. To select a different value for {decimals} you should overload it. All two of these values are immutable: they can only be set once during construction."
      },
      "decimals()": {
        "details": "Returns the number of decimals used to get its user representation. For example, if `decimals` equals `2`, a balance of `505` tokens should be displayed to a user as `5.05` (`505 / 10 ** 2`). Tokens usually opt for a value of 18, imitating the relationship between Ether and Wei. This is the value {ERC20} uses, unless this function is overridden; NOTE: This information is only used for _display_ purposes: it in no way affects any of the arithmetic of the contract, including {IERC20-balanceOf} and {IERC20-transfer}."
      },
      "decreaseAllowance(address,uint256)": {
        "details": "Atomically decreases the allowance granted to `spender` by the caller. This is an alternative to {approve} that can be used as a mitigation for problems described in {IERC20-approve}. Emits an {Approval} event indicating the updated allowance. Requirements: - `spender` cannot be the zero address. - `spender` must have allowance for the caller of at least `subtractedValue`."
      },
      "increaseAllowance(address,uint256)": {
        "details": "Atomically increases the allowance granted to `spender` by the caller. This is an alternative to {approve} that can be used as a mitigation for problems described in {IERC20-approve}. Emits an {Approval} event indicating the updated allowance. Requirements: - `spender` cannot be the zero address."
      },
      "name()": {
        "details": "Returns the name of the token."
      },
      "symbol()": {
        "details": "Returns the symbol of the token, usually a shorter version of the name."
      },
      "totalSupply()": {
        "details": "See {IERC20-totalSupply}."
      },
      "transfer(address,uint256)": {
        "details": "See {IERC20-transfer}. Requirements: - `to` cannot be the zero address. - the caller must have a balance of at least `amount`."
      },
      "transferFrom(address,address,uint256)": {
        "details": "See {IERC20-transferFrom}. Emits an {Approval} event indicating the updated allowance. This is not required by the EIP. See the note at the beginning of {ERC20}. NOTE: Does not update the allowance if the current allowance is the maximum `uint256`. Requirements: - `from` and `to` cannot be the zero address. - `from` must have a balance of at least `amount`. - the caller must have allowance for ``from``'s tokens of at least `amount`."
      }
    },
    "stateVariables": {
      "takeFee": {
        "details": "Moves `amount` of tokens from `from` to `to`. This internal function is equivalent to {transfer}, and can be used to e.g. implement automatic token fees, slashing mechanisms, etc. Emits a {Transfer} event. Requirements: - `from` cannot be the zero address. - `to` cannot be the zero address. - `from` must have a balance of at least `amount`."
      }
    },
    "version": 1
  },
  "userdoc": {
    "kind": "user",
    "methods": {},
    "version": 1
  }
}