{
  "contractName": "ERC20",
  "abi": [
    {
      "inputs": [],
      "stateMutability": "nonpayable",
      "type": "constructor"
    },
    {
      "anonymous": false,
      "inputs": [
        {
          "indexed": false,
          "internalType": "address",
          "name": "sender",
          "type": "address"
        },
        {
          "indexed": false,
          "internalType": "address",
          "name": "recipient",
          "type": "address"
        },
        {
          "indexed": false,
          "internalType": "uint256",
          "name": "amount",
          "type": "uint256"
        }
      ],
      "name": "Approve",
      "type": "event"
    },
    {
      "anonymous": false,
      "inputs": [
        {
          "indexed": false,
          "internalType": "address",
          "name": "sender",
          "type": "address"
        },
        {
          "indexed": false,
          "internalType": "address",
          "name": "recipient",
          "type": "address"
        },
        {
          "indexed": false,
          "internalType": "uint256",
          "name": "amount",
          "type": "uint256"
        }
      ],
      "name": "Transfer",
      "type": "event"
    },
    {
      "inputs": [],
      "name": "burnAmount",
      "outputs": [
        {
          "internalType": "uint256",
          "name": "",
          "type": "uint256"
        }
      ],
      "stateMutability": "view",
      "type": "function",
      "constant": true
    },
    {
      "inputs": [],
      "name": "burnPercentage",
      "outputs": [
        {
          "internalType": "uint256",
          "name": "",
          "type": "uint256"
        }
      ],
      "stateMutability": "view",
      "type": "function",
      "constant": true
    },
    {
      "inputs": [],
      "name": "charity_tx_percentage",
      "outputs": [
        {
          "internalType": "uint256",
          "name": "",
          "type": "uint256"
        }
      ],
      "stateMutability": "view",
      "type": "function",
      "constant": true
    },
    {
      "inputs": [],
      "name": "dev_tx_percentage",
      "outputs": [
        {
          "internalType": "uint256",
          "name": "",
          "type": "uint256"
        }
      ],
      "stateMutability": "view",
      "type": "function",
      "constant": true
    },
    {
      "inputs": [],
      "name": "marketing_tx_percentage",
      "outputs": [
        {
          "internalType": "uint256",
          "name": "",
          "type": "uint256"
        }
      ],
      "stateMutability": "view",
      "type": "function",
      "constant": true
    },
    {
      "inputs": [],
      "name": "totalCharityPercentage",
      "outputs": [
        {
          "internalType": "uint256",
          "name": "",
          "type": "uint256"
        }
      ],
      "stateMutability": "view",
      "type": "function",
      "constant": true
    },
    {
      "inputs": [],
      "name": "totalDevPercentage",
      "outputs": [
        {
          "internalType": "uint256",
          "name": "",
          "type": "uint256"
        }
      ],
      "stateMutability": "view",
      "type": "function",
      "constant": true
    },
    {
      "inputs": [],
      "name": "totalMarketingPercentage",
      "outputs": [
        {
          "internalType": "uint256",
          "name": "",
          "type": "uint256"
        }
      ],
      "stateMutability": "view",
      "type": "function",
      "constant": true
    },
    {
      "inputs": [],
      "name": "totalTaxValue",
      "outputs": [
        {
          "internalType": "uint256",
          "name": "",
          "type": "uint256"
        }
      ],
      "stateMutability": "view",
      "type": "function",
      "constant": true
    },
    {
      "inputs": [],
      "name": "name",
      "outputs": [
        {
          "internalType": "string",
          "name": "",
          "type": "string"
        }
      ],
      "stateMutability": "view",
      "type": "function",
      "constant": true
    },
    {
      "inputs": [],
      "name": "symbol",
      "outputs": [
        {
          "internalType": "string",
          "name": "",
          "type": "string"
        }
      ],
      "stateMutability": "view",
      "type": "function",
      "constant": true
    },
    {
      "inputs": [],
      "name": "decimals",
      "outputs": [
        {
          "internalType": "uint256",
          "name": "",
          "type": "uint256"
        }
      ],
      "stateMutability": "view",
      "type": "function",
      "constant": true
    },
    {
      "inputs": [],
      "name": "totalSupply",
      "outputs": [
        {
          "internalType": "uint256",
          "name": "",
          "type": "uint256"
        }
      ],
      "stateMutability": "view",
      "type": "function",
      "constant": true
    },
    {
      "inputs": [
        {
          "internalType": "address",
          "name": "account",
          "type": "address"
        }
      ],
      "name": "balanceOf",
      "outputs": [
        {
          "internalType": "uint256",
          "name": "",
          "type": "uint256"
        }
      ],
      "stateMutability": "view",
      "type": "function",
      "constant": true
    },
    {
      "inputs": [
        {
          "internalType": "address",
          "name": "recipient",
          "type": "address"
        },
        {
          "internalType": "uint256",
          "name": "amount",
          "type": "uint256"
        }
      ],
      "name": "transfer",
      "outputs": [
        {
          "internalType": "bool",
          "name": "",
          "type": "bool"
        }
      ],
      "stateMutability": "nonpayable",
      "type": "function"
    },
    {
      "inputs": [
        {
          "internalType": "address",
          "name": "owner",
          "type": "address"
        },
        {
          "internalType": "address",
          "name": "spender",
          "type": "address"
        }
      ],
      "name": "allowance",
      "outputs": [
        {
          "internalType": "uint256",
          "name": "",
          "type": "uint256"
        }
      ],
      "stateMutability": "view",
      "type": "function",
      "constant": true
    },
    {
      "inputs": [
        {
          "internalType": "address",
          "name": "spender",
          "type": "address"
        },
        {
          "internalType": "uint256",
          "name": "amount",
          "type": "uint256"
        }
      ],
      "name": "approve",
      "outputs": [
        {
          "internalType": "bool",
          "name": "",
          "type": "bool"
        }
      ],
      "stateMutability": "nonpayable",
      "type": "function"
    },
    {
      "inputs": [
        {
          "internalType": "address",
          "name": "sender",
          "type": "address"
        },
        {
          "internalType": "address",
          "name": "recipient",
          "type": "address"
        },
        {
          "internalType": "uint256",
          "name": "amount",
          "type": "uint256"
        }
      ],
      "name": "transferFrom",
      "outputs": [
        {
          "internalType": "bool",
          "name": "",
          "type": "bool"
        }
      ],
      "stateMutability": "nonpayable",
      "type": "function"
    },
    {
      "inputs": [
        {
          "internalType": "address",
          "name": "spender",
          "type": "address"
        },
        {
          "internalType": "uint256",
          "name": "addedValue",
          "type": "uint256"
        }
      ],
      "name": "increaseAllowance",
      "outputs": [
        {
          "internalType": "bool",
          "name": "",
          "type": "bool"
        }
      ],
      "stateMutability": "nonpayable",
      "type": "function"
    },
    {
      "inputs": [
        {
          "internalType": "address",
          "name": "spender",
          "type": "address"
        },
        {
          "internalType": "uint256",
          "name": "subtractedValue",
          "type": "uint256"
        }
      ],
      "name": "decreaseAllowance",
      "outputs": [
        {
          "internalType": "bool",
          "name": "",
          "type": "bool"
        }
      ],
      "stateMutability": "nonpayable",
      "type": "function"
    },
    {
      "inputs": [
        {
          "internalType": "uint256",
          "name": "marketingTaxPercentage",
          "type": "uint256"
        },
        {
          "internalType": "uint256",
          "name": "devTaxPercentage",
          "type": "uint256"
        },
        {
          "internalType": "uint256",
          "name": "charityTaxPercentage",
          "type": "uint256"
        }
      ],
      "name": "updateTxPercentage",
      "outputs": [],
      "stateMutability": "nonpayable",
      "type": "function"
    },
    {
      "inputs": [
        {
          "internalType": "address",
          "name": "marketingAddress",
          "type": "address"
        },
        {
          "internalType": "address",
          "name": "devAddress",
          "type": "address"
        },
        {
          "internalType": "address",
          "name": "charityAddress",
          "type": "address"
        }
      ],
      "name": "updateTaxHolderAddress",
      "outputs": [],
      "stateMutability": "nonpayable",
      "type": "function"
    },
    {
      "inputs": [
        {
          "internalType": "uint256",
          "name": "_burnPercentage",
          "type": "uint256"
        }
      ],
      "name": "updateBurnPercentage",
      "outputs": [],
      "stateMutability": "nonpayable",
      "type": "function"
    }
  ],
  "bytecode": "0x6080604052601260028190556200001890600a62000221565b62000028906377359400620002ec565b6003908155600160068190556002600755600891909155600e55601080546001600160a01b03199081167392ea94e6880a93810a5e15e171d03dc57f9514ed179091556011805482167342e5d4111bc2329a821e8c949e64f67f885ea3a5179055601280549091167326fa0fdd83705be35e1f08ae73dfbbbf9b38e2e8179055348015620000b557600080fd5b5060408051808201909152600c8082526b537061726b20546f6b656e7360a01b6020909201918252620000eb9160009162000132565b506040805180820190915260038082526253504b60e81b6020909201918252620001189160019162000132565b506003543360009081526004602052604090205562000361565b82805462000140906200030e565b90600052602060002090601f016020900481019282620001645760008555620001af565b82601f106200017f57805160ff1916838001178555620001af565b82800160010185558215620001af579182015b82811115620001af57825182559160200191906001019062000192565b50620001bd929150620001c1565b5090565b5b80821115620001bd5760008155600101620001c2565b600181815b8085111562000219578160001904821115620001fd57620001fd6200034b565b808516156200020b57918102915b93841c9390800290620001dd565b509250929050565b60006200022f838362000236565b9392505050565b6000826200024757506001620002e6565b816200025657506000620002e6565b81600181146200026f57600281146200027a576200029a565b6001915050620002e6565b60ff8411156200028e576200028e6200034b565b50506001821b620002e6565b5060208310610133831016604e8410600b8410161715620002bf575081810a620002e6565b620002cb8383620001d8565b8060001904821115620002e257620002e26200034b565b0290505b92915050565b60008160001904831182151516156200030957620003096200034b565b500290565b600181811c908216806200032357607f821691505b602082108114156200034557634e487b7160e01b600052602260045260246000fd5b50919050565b634e487b7160e01b600052601160045260246000fd5b610d0780620003716000396000f3fe608060405234801561001057600080fd5b506004361061014d5760003560e01c806395d89b41116100c3578063c6be09ab1161007c578063c6be09ab146102af578063d0395298146102b8578063dd62ed3e146102c1578063ea14a509146102fa578063f01f20df1461030d578063f2b783ff1461031657600080fd5b806395d89b4114610220578063a457c2d714610228578063a9059cbb1461023b578063ae1bb4d71461024e578063be2910eb14610257578063c03fc517146102a657600080fd5b806332e7d2f81161011557806332e7d2f8146101c057806339509351146101c9578063486a7e6b146101dc57806369f28a8c146101e557806370a08231146101ee57806395c7b9841461021757600080fd5b806306fdde0314610152578063095ea7b31461017057806318160ddd1461019357806323b872dd146101a5578063313ce567146101b8575b600080fd5b61015a610332565b6040516101679190610b4f565b60405180910390f35b61018361017e366004610ae0565b6103c4565b6040519015158152602001610167565b6003545b604051908152602001610167565b6101836101b3366004610aa4565b61045a565b600254610197565b610197600a5481565b6101836101d7366004610ae0565b6104fc565b610197600d5481565b61019760085481565b6101976101fc366004610a0c565b6001600160a01b031660009081526004602052604090205490565b610197600c5481565b61015a610512565b610183610236366004610ae0565b610521565b610183610249366004610ae0565b61052e565b61019760095481565b6102a4610265366004610a61565b601080546001600160a01b039485166001600160a01b031991821617909155601180549385169382169390931790925560128054919093169116179055565b005b61019760075481565b61019760065481565b610197600b5481565b6101976102cf366004610a2e565b6001600160a01b03918216600090815260056020908152604080832093909416825291909152205490565b6102a4610308366004610b0a565b600e55565b610197600e5481565b6102a4610324366004610b23565b600692909255600755600855565b60606000805461034190610c80565b80601f016020809104026020016040519081016040528092919081815260200182805461036d90610c80565b80156103ba5780601f1061038f576101008083540402835291602001916103ba565b820191906000526020600020905b81548152906001019060200180831161039d57829003601f168201915b5050505050905090565b336000908152600460205260408120548211156103fc5760405162461bcd60e51b81526004016103f390610be5565b60405180910390fd5b610407338484610581565b604080513381526001600160a01b03851660208201529081018390527f6e11fb1b7f119e3f2fa29896ef5fdf8b8a2d0d4df6fe90ba8668e7d8b2ffa25e906060015b60405180910390a150600192915050565b6000610467848484610581565b61047284848461063e565b6001600160a01b0383166000908152600460205260408120805484929061049a908490610c10565b909155506104a99050826106b3565b604080513381526001600160a01b03851660208201529081018390527fddf252ad1be2c89b69c2b068fc378daa952ba7f163c4a11628f55a4df523b3ef9060600160405180910390a15060019392505050565b6000610509338484610581565b50600192915050565b60606001805461034190610c80565b600061050933848461063e565b600061053b338484610794565b604080513381526001600160a01b03851660208201529081018390527fddf252ad1be2c89b69c2b068fc378daa952ba7f163c4a11628f55a4df523b3ef90606001610449565b6001600160a01b0382166105a75760405162461bcd60e51b81526004016103f390610ba4565b6001600160a01b0383166105fd5760405162461bcd60e51b815260206004820152601f60248201527f5370656e646572206163636f756e74206973205a65726f206163636f756e740060448201526064016103f3565b6001600160a01b03808416600090815260056020908152604080832093861683529290529081208054839290610634908490610c10565b9091555050505050565b6001600160a01b038084166000908152600560209081526040808320938616835292905220548111156106835760405162461bcd60e51b81526004016103f390610be5565b6001600160a01b039092166000908152600560209081526040808320338452909152902080549290920390915550565b60006106c160065483610932565b905080600a60008282546106d59190610c10565b9250508190555060006106ea60075484610932565b905080600b60008282546106fe9190610c10565b92505081905550600061071360085485610932565b905080600c60008282546107279190610c10565b909155508190506107388385610c10565b6107429190610c10565b600f55600c54600b54600a546107589190610c10565b6107629190610c10565b600981905568056bc75e2d631000001161078e5761077e610953565b6000600a819055600b819055600c555b50505050565b6001600160a01b0382166107ba5760405162461bcd60e51b81526004016103f390610ba4565b6001600160a01b0383166108105760405162461bcd60e51b815260206004820152601f60248201527f5370656e646572206163636f756e74206973205a65726f206163636f756e740060448201526064016103f3565b6001600160a01b0383166000908152600460205260409020548111156108485760405162461bcd60e51b81526004016103f390610be5565b6001600160a01b03831660009081526004602052604081208054839290610870908490610c69565b9091555050600e546064906108859083610c4a565b61088f9190610c28565b600d819055600380546000906108a6908490610c69565b9091555050600d54600080805260046020527f17ef568e3e12ab5b9c7254a8d58478811de00f9e6eb34345acd53bf8fd09d3ec80549091906108e9908490610c10565b9091555050600d54610904906108ff9083610c69565b6106b3565b600f546109119082610c69565b6001600160a01b039092166000908152600460205260409020919091555050565b60008060646109418585610c4a565b61094b9190610c28565b949350505050565b600a546010546001600160a01b031660009081526004602052604081208054909190610980908490610c10565b9091555050600b546011546001600160a01b0316600090815260046020526040812080549091906109b2908490610c10565b9091555050600c546012546001600160a01b0316600090815260046020526040812080549091906109e4908490610c10565b90915550506000600955565b80356001600160a01b0381168114610a0757600080fd5b919050565b600060208284031215610a1e57600080fd5b610a27826109f0565b9392505050565b60008060408385031215610a4157600080fd5b610a4a836109f0565b9150610a58602084016109f0565b90509250929050565b600080600060608486031215610a7657600080fd5b610a7f846109f0565b9250610a8d602085016109f0565b9150610a9b604085016109f0565b90509250925092565b600080600060608486031215610ab957600080fd5b610ac2846109f0565b9250610ad0602085016109f0565b9150604084013590509250925092565b60008060408385031215610af357600080fd5b610afc836109f0565b946020939093013593505050565b600060208284031215610b1c57600080fd5b5035919050565b600080600060608486031215610b3857600080fd5b505081359360208301359350604090920135919050565b600060208083528351808285015260005b81811015610b7c57858101830151858201604001528201610b60565b81811115610b8e576000604083870101525b50601f01601f1916929092016040019392505050565b60208082526021908201527f526563697069656e742061646472657373206973207a65726f206163636f756e6040820152601d60fa1b606082015260800190565b602080825260119082015270125b9cdd59999a58da595b9d08199d5b99607a1b604082015260600190565b60008219821115610c2357610c23610cbb565b500190565b600082610c4557634e487b7160e01b600052601260045260246000fd5b500490565b6000816000190483118215151615610c6457610c64610cbb565b500290565b600082821015610c7b57610c7b610cbb565b500390565b600181811c90821680610c9457607f821691505b60208210811415610cb557634e487b7160e01b600052602260045260246000fd5b50919050565b634e487b7160e01b600052601160045260246000fdfea2646970667358221220fefaf8b7db083d2c1d0701612132742877cf793bda6de6fbfb7033228c10d46d64736f6c63430008070033",
  "immutableReferences": {},
  "source": "// SPDX-License-Identifier: MIT\r\n// OpenZeppelin Contracts (last updated v4.7.0) (token/ERC20/ERC20.sol)\r\n\r\npragma solidity 0.8.7;\r\n\r\ncontract ERC20{\r\n    string _name;\r\n    string _symbol;\r\n    uint256 _decimals = 18;\r\n    uint256 total_supply = 2000000000 * 10 ** _decimals;\r\n    mapping(address => uint256) balance_of;\r\n    mapping(address => mapping(address=> uint256)) _allowance;\r\n\r\n    uint256 public marketing_tx_percentage = 1;\r\n    uint256 public dev_tx_percentage= 2;\r\n    uint256 public charity_tx_percentage = 3;\r\n    uint256 public totalTaxValue;\r\n    uint256 public totalMarketingPercentage;\r\n    uint256 public totalDevPercentage;\r\n    uint256 public totalCharityPercentage;\r\n    uint256 public burnAmount;\r\n    uint256 public burnPercentage = 1;\r\n    uint256 totalTaxPercentage;\r\n\r\n     address marketing_address = 0x92eA94E6880A93810a5e15e171D03dC57F9514Ed;\r\n     address dev_address = 0x42E5D4111Bc2329A821E8c949e64F67f885ea3a5;\r\n     address charity_address = 0x26fA0fdd83705be35e1f08ae73DFBbbF9b38E2E8;\r\n\r\n     event Transfer(address sender, address recipient, uint256 amount);\r\n     event Approve(address sender, address recipient, uint256 amount);\r\n\r\n\r\n// to set the values of name, symbol and total supply\r\n\r\n    constructor() {\r\n        _name = \"Spark Tokens\";\r\n        _symbol = \"SPK\"; \r\n        balance_of[msg.sender] = total_supply;\r\n    }\r\n\r\n// to view the name of a contract\r\n    function name() external view returns(string memory){\r\n        return _name;\r\n    }\r\n// To view the symbol of a contract\r\n    function symbol() external view returns(string memory){\r\n        return _symbol;\r\n    }\r\n\r\n// to view the decimal of a contract\r\n    function decimals() external view returns(uint256){\r\n        return _decimals;\r\n    }\r\n// to view the total supply of a contract\r\n    function totalSupply() external view returns(uint256){\r\n        return total_supply;\r\n    }\r\n\r\n/* \r\n     * @dev displace the balance of an given account\r\n     * @param account\r\n     */\r\n\r\n    function balanceOf(address account) public view returns(uint256){\r\n        return balance_of[account];\r\n    }\r\n\r\n /* \r\n     * @dev to transfer the token to the recipient from account holder to the recipient\r\n     * @param recipient and amount\r\n     */\r\n\r\n    function transfer(address recipient, uint256 amount) external returns(bool){\r\n       _transfer(msg.sender, recipient, amount);\r\n        emit Transfer(msg.sender, recipient, amount);\r\n       return true;\r\n    }\r\n\r\n    /* \r\n     * @dev get the allowance\r\n     * @param owner and spender\r\n     */\r\n\r\n    function allowance(address owner, address spender) public view returns(uint256){\r\n        return _allowance[owner][spender];\r\n    } \r\n\r\n    /* \r\n     * @dev approve the allowance to the spender form the account holder\r\n     * @param spender and amount\r\n     */ \r\n\r\n    function approve(address spender, uint256 amount) external returns(bool){\r\n        require(balance_of[msg.sender] >= amount,\"Insufficient fund\");\r\n       _approve(msg.sender, spender, amount);\r\n       emit Approve(msg.sender, spender, amount);\r\n        return true;\r\n    }\r\n\r\n    /* \r\n     * @dev transfer allowance to the recipient\r\n     * @param sender, recipient and amount\r\n     */\r\n\r\n    function transferFrom(address sender, address recipient, uint256 amount) external returns(bool){\r\n        _approve(sender, recipient, amount);\r\n        spend_allowance(sender, recipient, amount);\r\n        balance_of[recipient] += amount;\r\n        taxReduction(amount);  \r\n        emit Transfer(msg.sender, recipient, amount);\r\n        return true;\r\n    }\r\n\r\n    /* \r\n     * @dev check the spender token is greater than the given amount\r\n     * if the condition is passed, the amount will reduced from the account holder and sent to recipient\r\n     * @param spender, recipient and amount\r\n     */\r\n\r\n    function _transfer(address spender, address recipient, uint256 amount) internal {\r\n        require(recipient != address(0), \"Recipient address is zero account\");\r\n        require(spender != address(0), \"Spender account is Zero account\");\r\n        require(balance_of[spender] >= amount,\"Insufficient fund\");\r\n        balance_of[spender] -= amount;\r\n        burnAmount = amount * burnPercentage / 100;\r\n        total_supply -= burnAmount;\r\n        balance_of[address(0)] += burnAmount;\r\n        taxReduction(amount-burnAmount);\r\n        balance_of[recipient] = amount - totalTaxPercentage;\r\n    }\r\n\r\n    /* \r\n     * @dev calculate the tax amount, if the tax amount is greater than 100 * 10 ** 18 \r\n     * taxCalculation function will execute\r\n     * @param amount\r\n     */\r\n\r\n    function taxReduction(uint256 amount) internal {\r\n       uint256 marketingPercentage = percentageCalculate(marketing_tx_percentage, amount);\r\n       totalMarketingPercentage += marketingPercentage;\r\n       uint256 devPercentage = percentageCalculate(dev_tx_percentage, amount);\r\n       totalDevPercentage += devPercentage;\r\n       uint256 charityPercentage = percentageCalculate(charity_tx_percentage, amount);\r\n       totalCharityPercentage += charityPercentage;\r\n        totalTaxPercentage = (marketingPercentage + devPercentage + charityPercentage);\r\n        totalTaxValue = (totalMarketingPercentage + totalDevPercentage + totalCharityPercentage);\r\n        if(totalTaxValue >= 100 * 10 ** 18){\r\n        taxCalculation();\r\n        totalMarketingPercentage = 0;\r\n        totalDevPercentage = 0;\r\n        totalCharityPercentage = 0;\r\n        }\r\n    }\r\n\r\n    /**\r\n     * @dev calculate the percentage value\r\n     * @param percent and amount\r\n     */\r\n\r\n    function percentageCalculate(uint256 percent, uint256 amount) internal pure returns(uint256){\r\n        uint256 percentageValue = amount * percent / 100;\r\n        return percentageValue;\r\n    }\r\n\r\n    /* *\r\n     * @dev add the amount to the allowance between spender and recipient\r\n     * @param spender, recipient and amount\r\n     */\r\n\r\n    function _approve(address spender, address recipient, uint256 amount) internal {\r\n        require(recipient != address(0), \"Recipient address is zero account\");\r\n        require(spender != address(0), \"Spender account is Zero account\");\r\n        _allowance[spender][recipient] += amount;\r\n    }\r\n\r\n /* *\r\n     * @dev reduce the amount from the allowance between spender and recipient\r\n     * @param spender, recipient and amount\r\n     */\r\n\r\n    function spend_allowance(address spender, address recipient, uint256 amount) internal {\r\n        require(_allowance[spender][recipient] >= amount,\"Insufficient fund\");\r\n        unchecked{\r\n            _allowance[spender][msg.sender] -= amount;\r\n        }\r\n    } \r\n\r\n/* *\r\n     * @dev increase the allowance between owner and spender\r\n     * @param spender and addValue\r\n     */\r\n\r\n    function increaseAllowance(address spender, uint256 addedValue) external returns(bool){\r\n        _approve(msg.sender, spender, addedValue);\r\n        return true;\r\n    }\r\n\r\n    /* *\r\n     * @dev decrease the allowance between owner and spender\r\n     * @param spender and addValue\r\n     */\r\n\r\n    function decreaseAllowance(address spender, uint256 subtractedValue) external returns(bool){\r\n        spend_allowance(msg.sender, spender, subtractedValue);\r\n        return true;\r\n    }\r\n\r\n   /* *\r\n     * @dev to increase the token of a contract\r\n     * @param account, amount\r\n     */  \r\n\r\n    function _mint(address account, uint256 amount) internal {\r\n        balance_of[account] += amount;\r\n        total_supply += amount;\r\n    }\r\n\r\n   /* *\r\n     * @dev to decrease the token of a user\r\n     * @param account, amount\r\n     */  \r\n\r\n    function _burn(address account, uint256 amount) internal view{\r\n        require(account != address(0), \"This is an Zero Account\");\r\n        require(balanceOf(account) >= amount, \"Insufficient fund\");\r\n        uint256 reduceBalanceOfUser = balanceOf(account);\r\n        reduceBalanceOfUser -= amount;\r\n        \r\n    }\r\n\r\n    /* *\r\n     * @dev to update the values of the tax percentage\r\n     * @param marketingTaxPercentage, devTaxPercentage and charityTaxPercentage\r\n     */ \r\n\r\n    function updateTxPercentage(uint256 marketingTaxPercentage, uint256 devTaxPercentage, uint256 charityTaxPercentage)external{\r\n        marketing_tx_percentage = marketingTaxPercentage;\r\n        dev_tx_percentage = devTaxPercentage;\r\n        charity_tx_percentage = charityTaxPercentage;\r\n    }\r\n\r\n /* *\r\n     * @dev to update the wallet of the tax holder\r\n     * @param marketingAddress, devAddress and charityAddress\r\n     */ \r\n\r\n    function updateTaxHolderAddress(address marketingAddress, address devAddress, address charityAddress) external {\r\n        marketing_address = marketingAddress;\r\n        dev_address = devAddress;\r\n        charity_address = charityAddress;\r\n    }\r\n\r\n     /* *\r\n     * @dev to update burn percentage while transation\r\n     * @param burn_percentage\r\n     */ \r\nfunction updateBurnPercentage(uint256 _burnPercentage) external {\r\n        burnPercentage = _burnPercentage;\r\n    }\r\n\r\n\r\n     // add the tax amount to the tax holder\r\n\r\n    function taxCalculation() internal{\r\n            \r\n            balance_of[marketing_address] += totalMarketingPercentage;\r\n            balance_of[dev_address] += totalDevPercentage;\r\n            balance_of[charity_address] += totalCharityPercentage;\r\n            totalTaxValue = 0;\r\n    }\r\n\r\n}\r\n",
  "sourcePath": "D:\\madhu\\contracts\\ERC20.sol",
  "compiler": {
    "name": "solc",
    "version": "0.8.7+commit.e28d00a7.Emscripten.clang"
  },
  "schemaVersion": "3.4.10",
  "updatedAt": "2022-10-28T07:40:06.161Z",
  "networkType": "ethereum",
  "devdoc": {
    "kind": "dev",
    "methods": {},
    "version": 1
  },
  "userdoc": {
    "kind": "user",
    "methods": {},
    "version": 1
  }
}