{
  "contractName": "Payable",
  "abi": [
    {
      "stateMutability": "payable",
      "type": "receive"
    },
    {
      "inputs": [],
      "name": "deposit",
      "outputs": [],
      "stateMutability": "payable",
      "type": "function"
    },
    {
      "inputs": [
        {
          "internalType": "address payable",
          "name": "to",
          "type": "address"
        },
        {
          "internalType": "uint256",
          "name": "value",
          "type": "uint256"
        }
      ],
      "name": "transferNativeCurrenc",
      "outputs": [],
      "stateMutability": "payable",
      "type": "function"
    }
  ],
  "bytecode": "0x608060405234801561001057600080fd5b50610281806100206000396000f3fe60806040526004361061002d5760003560e01c80631ea3ccf114610039578063d0e30db01461005557610034565b3661003457005b600080fd5b610053600480360381019061004e919061018e565b61005f565b005b61005d6100f3565b005b6000479050348110156100a7576040517f08c379a000000000000000000000000000000000000000000000000000000000815260040161009e9061022b565b60405180910390fd5b8273ffffffffffffffffffffffffffffffffffffffff166108fc839081150290604051600060405180830381858888f193505050501580156100ed573d6000803e3d6000fd5b50505050565b565b600080fd5b600073ffffffffffffffffffffffffffffffffffffffff82169050919050565b6000610125826100fa565b9050919050565b6101358161011a565b811461014057600080fd5b50565b6000813590506101528161012c565b92915050565b6000819050919050565b61016b81610158565b811461017657600080fd5b50565b60008135905061018881610162565b92915050565b600080604083850312156101a5576101a46100f5565b5b60006101b385828601610143565b92505060206101c485828601610179565b9150509250929050565b600082825260208201905092915050565b7f496e73756666696369656e742066756e64000000000000000000000000000000600082015250565b60006102156011836101ce565b9150610220826101df565b602082019050919050565b6000602082019050818103600083015261024481610208565b905091905056fea26469706673582212209416349277a8a6cb02866d95bf89aa9f5e9f8532bbc627b26dd7ea686b24592b64736f6c63430008110033",
  "immutableReferences": {},
  "source": "// SPDX-License-Identifier: MIT\r\n\r\npragma solidity 0.8.17;\r\n\r\ncontract Payable{\r\n  //to recieve external currency\r\n    receive() external payable {}\r\n\r\n    //  address public owner;\r\n     \r\n\r\n    //  constructor() payable{\r\n    //      owner = msg.sender;\r\n    //  }\r\n\r\n    // modifier onlyOwner(){\r\n    //      require(owner == msg.sender,\"only owner\");\r\n    //      _;\r\n    // } \r\n     /* *\r\n     * @dev withdraw native currency to owner account\r\n     */\r\n\r\n     function deposit() external payable{}\r\n\r\n    //  function balanceOf() external view returns(uint){\r\n    //      return address(this).balance;\r\n    //  }\r\n\r\n    // function withdraw() external payable onlyOwner {\r\n    //     uint nativeCrrency = address(this).balance;\r\n    //     address payable _owner = payable(msg.sender);\r\n    //     _owner.transfer(nativeCrrency);\r\n    // }\r\n\r\n     /* *\r\n     * @dev transfer native currency contract to wallet\r\n     * @param to\r\n     */\r\n    function transferNativeCurrenc(address payable to, uint value) payable external{\r\n       uint contractBalance = address(this).balance;\r\n        require(contractBalance >= msg.value,\"Insufficient fund\");\r\n        to.transfer(value);\r\n    }\r\n}\r\n\r\n",
  "sourcePath": "D:\\solidity\\ERC20\\token\\contracts\\Payable.sol",
  "compiler": {
    "name": "solc",
    "version": "0.8.17+commit.8df45f5f.Emscripten.clang"
  },
  "schemaVersion": "3.4.11",
  "updatedAt": "2022-12-01T05:22:41.194Z",
  "devdoc": {
    "kind": "dev",
    "methods": {},
    "version": 1
  },
  "userdoc": {
    "kind": "user",
    "methods": {},
    "version": 1
  }
}