{
  "contractName": "Payable",
  "abi": [
    {
      "stateMutability": "payable",
      "type": "receive"
    },
    {
      "inputs": [],
      "name": "deposit",
      "outputs": [],
      "stateMutability": "payable",
      "type": "function"
    },
    {
      "inputs": [
        {
          "internalType": "address payable",
          "name": "to",
          "type": "address"
        },
        {
          "internalType": "uint256",
          "name": "value",
          "type": "uint256"
        }
      ],
      "name": "transferNativeCurrenc",
      "outputs": [],
      "stateMutability": "payable",
      "type": "function"
    }
  ],
  "bytecode": "0x608060405234801561001057600080fd5b50610141806100206000396000f3fe60806040526004361061002d5760003560e01c80631ea3ccf114610039578063d0e30db01461004c57600080fd5b3661003457005b600080fd5b61004c6100473660046100d3565b61004e565b005b47348110156100975760405162461bcd60e51b8152602060048201526011602482015270125b9cdd59999a58da595b9d08199d5b99607a1b604482015260640160405180910390fd5b6040516001600160a01b0384169083156108fc029084906000818181858888f193505050501580156100cd573d6000803e3d6000fd5b50505050565b600080604083850312156100e657600080fd5b82356001600160a01b03811681146100fd57600080fd5b94602093909301359350505056fea264697066735822122007bc58f9d668d3aca8551cb1bb9dbab2cf4a6ab516ffa4ea125c9bb76ef22be764736f6c63430008070033",
  "immutableReferences": {},
  "source": "// SPDX-License-Identifier: MIT\r\n\r\npragma solidity 0.8.7;\r\n\r\ncontract Payable{\r\n  //to recieve external currency\r\n    receive() external payable {}\r\n\r\n    //  address public owner;\r\n     \r\n\r\n    //  constructor() payable{\r\n    //      owner = msg.sender;\r\n    //  }\r\n\r\n    // modifier onlyOwner(){\r\n    //      require(owner == msg.sender,\"only owner\");\r\n    //      _;\r\n    // } \r\n     /* *\r\n     * @dev withdraw native currency to owner account\r\n     */\r\n\r\n     function deposit() external payable{}\r\n\r\n    //  function balanceOf() external view returns(uint){\r\n    //      return address(this).balance;\r\n    //  }\r\n\r\n    // function withdraw() external payable onlyOwner {\r\n    //     uint nativeCrrency = address(this).balance;\r\n    //     address payable _owner = payable(msg.sender);\r\n    //     _owner.transfer(nativeCrrency);\r\n    // }\r\n\r\n     /* *\r\n     * @dev transfer native currency contract to wallet\r\n     * @param to\r\n     */\r\n    function transferNativeCurrenc(address payable to, uint value) payable external{\r\n       uint contractBalance = address(this).balance;\r\n        require(contractBalance >= msg.value,\"Insufficient fund\");\r\n        to.transfer(value);\r\n    }\r\n}\r\n\r\n",
  "sourcePath": "D:\\madhu\\contracts\\Payable.sol",
  "compiler": {
    "name": "solc",
    "version": "0.8.7+commit.e28d00a7.Emscripten.clang"
  },
  "schemaVersion": "3.4.10",
  "updatedAt": "2022-11-01T05:45:58.077Z",
  "devdoc": {
    "kind": "dev",
    "methods": {},
    "version": 1
  },
  "userdoc": {
    "kind": "user",
    "methods": {},
    "version": 1
  }
}