{
  "contractName": "TransferTx",
  "abi": [
    {
      "inputs": [
        {
          "internalType": "contract IERC20",
          "name": "_token",
          "type": "address"
        }
      ],
      "stateMutability": "nonpayable",
      "type": "constructor"
    },
    {
      "inputs": [],
      "name": "token",
      "outputs": [
        {
          "internalType": "contract IERC20",
          "name": "",
          "type": "address"
        }
      ],
      "stateMutability": "view",
      "type": "function",
      "constant": true
    },
    {
      "inputs": [],
      "name": "ViewTransferTaxAmount",
      "outputs": [
        {
          "internalType": "uint256",
          "name": "",
          "type": "uint256"
        }
      ],
      "stateMutability": "view",
      "type": "function",
      "constant": true
    },
    {
      "inputs": [
        {
          "internalType": "address",
          "name": "recipient",
          "type": "address"
        },
        {
          "internalType": "uint256",
          "name": "amount",
          "type": "uint256"
        }
      ],
      "name": "transfer1",
      "outputs": [
        {
          "internalType": "bool",
          "name": "success",
          "type": "bool"
        }
      ],
      "stateMutability": "nonpayable",
      "type": "function"
    },
    {
      "inputs": [
        {
          "internalType": "address",
          "name": "spender",
          "type": "address"
        },
        {
          "internalType": "uint256",
          "name": "amount",
          "type": "uint256"
        }
      ],
      "name": "approve_",
      "outputs": [
        {
          "internalType": "bool",
          "name": "success",
          "type": "bool"
        }
      ],
      "stateMutability": "nonpayable",
      "type": "function"
    }
  ],
  "bytecode": "0x608060405234801561001057600080fd5b5060405161037138038061037183398101604081905261002f91610067565b6001600160a01b03811661004257600080fd5b600080546001600160a01b0319166001600160a01b0392909216919091179055610097565b60006020828403121561007957600080fd5b81516001600160a01b038116811461009057600080fd5b9392505050565b6102cb806100a66000396000f3fe608060405234801561001057600080fd5b506004361061004c5760003560e01c806309921939146100515780637b2ad87414610079578063a9c6f4e71461008f578063fc0c546a146100a2575b600080fd5b61006461005f366004610222565b6100cd565b60405190151581526020015b60405180910390f35b61008161015c565b604051908152602001610070565b61006461009d366004610222565b6101e8565b6000546100b5906001600160a01b031681565b6040516001600160a01b039091168152602001610070565b6000805460405163a9059cbb60e01b81526001600160a01b038581166004830152602482018590529091169063a9059cbb906044015b602060405180830381600087803b15801561011d57600080fd5b505af1158015610131573d6000803e3d6000fd5b505050506040513d601f19601f82011682018060405250810190610155919061025a565b9392505050565b60008060009054906101000a90046001600160a01b03166001600160a01b0316634e8935986040518163ffffffff1660e01b815260040160206040518083038186803b1580156101ab57600080fd5b505afa1580156101bf573d6000803e3d6000fd5b505050506040513d601f19601f820116820180604052508101906101e3919061027c565b905090565b6000805460405163095ea7b360e01b81526001600160a01b038581166004830152602482018590529091169063095ea7b390604401610103565b6000806040838503121561023557600080fd5b82356001600160a01b038116811461024c57600080fd5b946020939093013593505050565b60006020828403121561026c57600080fd5b8151801515811461015557600080fd5b60006020828403121561028e57600080fd5b505191905056fea2646970667358221220983c59366b11b2cf6b7d9ee870e90ae1f1933e4762568477e556cfda368d245764736f6c63430008070033",
  "immutableReferences": {},
  "source": "// SPDX-License-Identifier: MIT\r\n// OpenZeppelin Contracts (last updated v4.7.0) (token/ERC20/ERC20.sol)\r\n\r\npragma solidity 0.8.7;\r\n\r\nimport \"../contracts/IERC20.sol\";\r\n\r\ncontract TransferTx{\r\n    IERC20  public token;\r\n\r\n    constructor(IERC20 _token){\r\n        require(address(_token) != address(0));\r\n        token = _token;\r\n    }\r\n    function ViewTransferTaxAmount()external view returns(uint256){\r\n       return token.transferTaxAmount();\r\n    }\r\n    function transfer1(address recipient, uint256 amount)external returns(bool success){\r\n       success = token.transfer(recipient, amount);\r\n    }\r\n    function approve_(address spender, uint256 amount) external returns(bool success){\r\n         success = token.approve(spender, amount);\r\n    }\r\n}",
  "sourcePath": "D:\\madhu\\contracts\\TransferTx.sol",
  "compiler": {
    "name": "solc",
    "version": "0.8.7+commit.e28d00a7.Emscripten.clang"
  },
  "schemaVersion": "3.4.10",
  "updatedAt": "2022-11-02T11:50:45.718Z",
  "networkType": "ethereum",
  "devdoc": {
    "kind": "dev",
    "methods": {},
    "version": 1
  },
  "userdoc": {
    "kind": "user",
    "methods": {},
    "version": 1
  }
}